{
  "transactions": [
    {
      "hash": "0xd94b12d2d6fa23ef8906b13ad3521d1246ec246e3bddf7243de662e82e00eb3e",
      "transactionType": "CALL",
      "contractName": null,
      "contractAddress": "0xadc3969da7550a3c0b01ca9097d64cf96576bd89",
      "function": "withdrawTokens(address,uint256)",
      "arguments": [
        "0x9b83d808362Cfc8f2D63F2Ea5D20cfB6a5e87519",
        "500000000000000000000000"
      ],
      "transaction": {
        "from": "0xe59095e33bf15e60907177eacbbc1b43f85a7154",
        "to": "0xadc3969da7550a3c0b01ca9097d64cf96576bd89",
        "gas": "0xc147",
        "value": "0x0",
        "input": "0x06b091f90000000000000000000000009b83d808362cfc8f2d63f2ea5d20cfb6a5e875190000000000000000000000000000000000000000000069e10de76676d0800000",
        "nonce": "0x12",
        "chainId": "0xa5bd",
        "feeToken": null,
        "calls": [],
        "keyType": null,
        "keyData": null
      },
      "additionalContracts": [],
      "isFixedGasLimit": false
    }
  ],
  "receipts": [
    {
      "type": "0x2",
      "status": "0x1",
      "cumulativeGasUsed": "0x20d31a",
      "logs": [
        {
          "address": "0x9b83d808362cfc8f2d63f2ea5d20cfb6a5e87519",
          "topics": [
            "0xddf252ad1be2c89b69c2b068fc378daa952ba7f163c4a11628f55a4df523b3ef",
            "0x000000000000000000000000adc3969da7550a3c0b01ca9097d64cf96576bd89",
            "0x000000000000000000000000e59095e33bf15e60907177eacbbc1b43f85a7154"
          ],
          "data": "0x0000000000000000000000000000000000000000000069e10de76676d0800000",
          "blockHash": "0x4b2c472d8464277a63e40f1913242cc2c8507b6a99ef6351da1fbf12cc8f8c22",
          "blockNumber": "0x5b7118",
          "blockTimestamp": "0x6943d18e",
          "transactionHash": "0xd94b12d2d6fa23ef8906b13ad3521d1246ec246e3bddf7243de662e82e00eb3e",
          "transactionIndex": "0x1d",
          "logIndex": "0x42",
          "removed": false
        },
        {
          "address": "0x20c0000000000000000000000000000000000001",
          "topics": [
            "0xddf252ad1be2c89b69c2b068fc378daa952ba7f163c4a11628f55a4df523b3ef",
            "0x000000000000000000000000e59095e33bf15e60907177eacbbc1b43f85a7154",
            "0x000000000000000000000000feec000000000000000000000000000000000000"
          ],
          "data": "0x0000000000000000000000000000000000000000000000000000000000000167",
          "blockHash": "0x4b2c472d8464277a63e40f1913242cc2c8507b6a99ef6351da1fbf12cc8f8c22",
          "blockNumber": "0x5b7118",
          "blockTimestamp": "0x6943d18e",
          "transactionHash": "0xd94b12d2d6fa23ef8906b13ad3521d1246ec246e3bddf7243de662e82e00eb3e",
          "transactionIndex": "0x1d",
          "logIndex": "0x43",
          "removed": false
        }
      ],
      "logsBloom": "0x00000000002000000000000000000000000000000000000000000000000000200000000000000000000000000000000000000000000400000000000000000000000004000100000000000008000000000008000000000000000000000000000000000000000000000000000000000000000000000000000000000010000000000000000000000000000000000020000000000000100000000040008000000000000020000000000000000000000000004000000000000000000000000000000000000012004000000000000000010000000000000000000000000000000000000000000000000000000000000000000000000000000000000000000000000000",
      "transactionHash": "0xd94b12d2d6fa23ef8906b13ad3521d1246ec246e3bddf7243de662e82e00eb3e",
      "transactionIndex": "0x1d",
      "blockHash": "0x4b2c472d8464277a63e40f1913242cc2c8507b6a99ef6351da1fbf12cc8f8c22",
      "blockNumber": "0x5b7118",
      "gasUsed": "0x8bef",
      "effectiveGasPrice": "0x2540e841e",
      "from": "0xe59095e33bf15e60907177eacbbc1b43f85a7154",
      "to": "0xadc3969da7550a3c0b01ca9097d64cf96576bd89",
      "contractAddress": null,
      "feeToken": "0x20c0000000000000000000000000000000000001",
      "feePayer": "0xe59095e33bf15e60907177eacbbc1b43f85a7154"
    }
  ],
  "libraries": [],
  "pending": [],
  "returns": {},
  "timestamp": 1766052241308,
  "chain": 42429,
  "commit": null
}