{
  "transactions": [
    {
      "hash": "0xd6cac5f00cceceea71b7d12b7356b3cbe9686658c65de43c02e784367105b320",
      "transactionType": "CALL",
      "contractName": null,
      "contractAddress": "0x9b83d808362cfc8f2d63f2ea5d20cfb6a5e87519",
      "function": "mint(address,uint256)",
      "arguments": [
        "0xE59095E33bf15E60907177EACbbc1b43F85A7154",
        "1000000000000000000000000"
      ],
      "transaction": {
        "from": "0xe59095e33bf15e60907177eacbbc1b43f85a7154",
        "to": "0x9b83d808362cfc8f2d63f2ea5d20cfb6a5e87519",
        "gas": "0xc4e7",
        "value": "0x0",
        "input": "0x40c10f19000000000000000000000000e59095e33bf15e60907177eacbbc1b43f85a715400000000000000000000000000000000000000000000d3c21bcecceda1000000",
        "nonce": "0xe",
        "chainId": "0xa5bd",
        "feeToken": null,
        "calls": [],
        "keyType": null,
        "keyData": null
      },
      "additionalContracts": [],
      "isFixedGasLimit": false
    }
  ],
  "receipts": [
    {
      "type": "0x2",
      "status": "0x1",
      "cumulativeGasUsed": "0x3d858a",
      "logs": [
        {
          "address": "0x9b83d808362cfc8f2d63f2ea5d20cfb6a5e87519",
          "topics": [
            "0xddf252ad1be2c89b69c2b068fc378daa952ba7f163c4a11628f55a4df523b3ef",
            "0x0000000000000000000000000000000000000000000000000000000000000000",
            "0x000000000000000000000000e59095e33bf15e60907177eacbbc1b43f85a7154"
          ],
          "data": "0x00000000000000000000000000000000000000000000d3c21bcecceda1000000",
          "blockHash": "0xbd9d0933e870701260baa6e8101d9f5c69556fd7d9b27305e9d7c84a8ae6dc89",
          "blockNumber": "0x5b6f05",
          "blockTimestamp": "0x6943d079",
          "transactionHash": "0xd6cac5f00cceceea71b7d12b7356b3cbe9686658c65de43c02e784367105b320",
          "transactionIndex": "0x10",
          "logIndex": "0x25",
          "removed": false
        },
        {
          "address": "0x20c0000000000000000000000000000000000001",
          "topics": [
            "0xddf252ad1be2c89b69c2b068fc378daa952ba7f163c4a11628f55a4df523b3ef",
            "0x000000000000000000000000e59095e33bf15e60907177eacbbc1b43f85a7154",
            "0x000000000000000000000000feec000000000000000000000000000000000000"
          ],
          "data": "0x000000000000000000000000000000000000000000000000000000000000016d",
          "blockHash": "0xbd9d0933e870701260baa6e8101d9f5c69556fd7d9b27305e9d7c84a8ae6dc89",
          "blockNumber": "0x5b6f05",
          "blockTimestamp": "0x6943d079",
          "transactionHash": "0xd6cac5f00cceceea71b7d12b7356b3cbe9686658c65de43c02e784367105b320",
          "transactionIndex": "0x10",
          "logIndex": "0x26",
          "removed": false
        }
      ],
      "logsBloom": "0x00000000002000000000000000000000000000000000000000000000000000200000000000000000000000000000000000000000000000000000000000000000000004000100000000000008000000000008000000000000000000000000000000000000020000000000000000000800000000000000000000000010000000000000000000000000000000000020000000000000100000000040000000000000000020000000000000000000000000000000000000000000000000000000000000000012004000000000000000010000000000000000000000000000000020000000000000000000000000000000000000000000000000000000000000000000",
      "transactionHash": "0xd6cac5f00cceceea71b7d12b7356b3cbe9686658c65de43c02e784367105b320",
      "transactionIndex": "0x10",
      "blockHash": "0xbd9d0933e870701260baa6e8101d9f5c69556fd7d9b27305e9d7c84a8ae6dc89",
      "blockNumber": "0x5b6f05",
      "gasUsed": "0x8e8f",
      "effectiveGasPrice": "0x2540e841e",
      "from": "0xe59095e33bf15e60907177eacbbc1b43f85a7154",
      "to": "0x9b83d808362cfc8f2d63f2ea5d20cfb6a5e87519",
      "contractAddress": null,
      "feeToken": "0x20c0000000000000000000000000000000000001",
      "feePayer": "0xe59095e33bf15e60907177eacbbc1b43f85a7154"
    }
  ],
  "libraries": [],
  "pending": [],
  "returns": {},
  "timestamp": 1766051962157,
  "chain": 42429,
  "commit": null
}