{
  "transactions": [
    {
      "hash": "0x03513cf1629e8f0b5098119a0b86db0fa496eb8939d9346396ab8eb80e88c835",
      "transactionType": "CALL",
      "contractName": null,
      "contractAddress": "0xadc3969da7550a3c0b01ca9097d64cf96576bd89",
      "function": "depositTokens(address,uint256)",
      "arguments": [
        "0x9b83d808362Cfc8f2D63F2Ea5D20cfB6a5e87519",
        "500000000000000000000000"
      ],
      "transaction": {
        "from": "0xe59095e33bf15e60907177eacbbc1b43f85a7154",
        "to": "0xadc3969da7550a3c0b01ca9097d64cf96576bd89",
        "gas": "0x14694",
        "value": "0x0",
        "input": "0x66168bd70000000000000000000000009b83d808362cfc8f2d63f2ea5d20cfb6a5e875190000000000000000000000000000000000000000000069e10de76676d0800000",
        "nonce": "0x11",
        "chainId": "0xa5bd",
        "feeToken": null,
        "calls": [],
        "keyType": null,
        "keyData": null
      },
      "additionalContracts": [],
      "isFixedGasLimit": false
    }
  ],
  "receipts": [
    {
      "type": "0x2",
      "status": "0x1",
      "cumulativeGasUsed": "0x3183db",
      "logs": [
        {
          "address": "0x9b83d808362cfc8f2d63f2ea5d20cfb6a5e87519",
          "topics": [
            "0xddf252ad1be2c89b69c2b068fc378daa952ba7f163c4a11628f55a4df523b3ef",
            "0x000000000000000000000000e59095e33bf15e60907177eacbbc1b43f85a7154",
            "0x000000000000000000000000adc3969da7550a3c0b01ca9097d64cf96576bd89"
          ],
          "data": "0x0000000000000000000000000000000000000000000069e10de76676d0800000",
          "blockHash": "0xa3e3112a8f2f1b3fb4ef05b6cf8068a47b2b6710c176c54172c5996ba41dca03",
          "blockNumber": "0x5b70f2",
          "blockTimestamp": "0x6943d17b",
          "transactionHash": "0x03513cf1629e8f0b5098119a0b86db0fa496eb8939d9346396ab8eb80e88c835",
          "transactionIndex": "0x1d",
          "logIndex": "0x3e",
          "removed": false
        },
        {
          "address": "0x20c0000000000000000000000000000000000001",
          "topics": [
            "0xddf252ad1be2c89b69c2b068fc378daa952ba7f163c4a11628f55a4df523b3ef",
            "0x000000000000000000000000e59095e33bf15e60907177eacbbc1b43f85a7154",
            "0x000000000000000000000000feec000000000000000000000000000000000000"
          ],
          "data": "0x000000000000000000000000000000000000000000000000000000000000025e",
          "blockHash": "0xa3e3112a8f2f1b3fb4ef05b6cf8068a47b2b6710c176c54172c5996ba41dca03",
          "blockNumber": "0x5b70f2",
          "blockTimestamp": "0x6943d17b",
          "transactionHash": "0x03513cf1629e8f0b5098119a0b86db0fa496eb8939d9346396ab8eb80e88c835",
          "transactionIndex": "0x1d",
          "logIndex": "0x3f",
          "removed": false
        }
      ],
      "logsBloom": "0x00000000002000000000000000000000000000000000000000000000000000200000000000000000000000000000000000000000000400000000000000000000000004000100000000000008000000000008000000000000000000000000000000000000000000000000000000000000000000000000000000000010000000000000000000000000000000000020000000000000100000000040008000000000000020000000000000000000000000004000000000000000000000000000000000000012004000000000000000010000000000000000000000000000000000000000000000000000000000000000000000000000000000000000000000000000",
      "transactionHash": "0x03513cf1629e8f0b5098119a0b86db0fa496eb8939d9346396ab8eb80e88c835",
      "transactionIndex": "0x1d",
      "blockHash": "0xa3e3112a8f2f1b3fb4ef05b6cf8068a47b2b6710c176c54172c5996ba41dca03",
      "blockNumber": "0x5b70f2",
      "gasUsed": "0xec70",
      "effectiveGasPrice": "0x2540e841e",
      "from": "0xe59095e33bf15e60907177eacbbc1b43f85a7154",
      "to": "0xadc3969da7550a3c0b01ca9097d64cf96576bd89",
      "contractAddress": null,
      "feeToken": "0x20c0000000000000000000000000000000000001",
      "feePayer": "0xe59095e33bf15e60907177eacbbc1b43f85a7154"
    }
  ],
  "libraries": [],
  "pending": [],
  "returns": {},
  "timestamp": 1766052220814,
  "chain": 42429,
  "commit": null
}