{
  "transactions": [
    {
      "hash": "0xbde6a4426c3cdb325686f749b99e6db30982acd3887f2b19bcb99bb7f8d0a9e7",
      "transactionType": "CREATE",
      "contractName": "Vault",
      "contractAddress": "0xac4799a4ce8dc9225afeb02092f51d6db11bae8c",
      "function": null,
      "arguments": [
        "0x2f05B1546B2E5170DB125708b228E03573ecc5E0"
      ],
      "transaction": {
        "from": "0x2f05b1546b2e5170db125708b228e03573ecc5e0",
        "value": "0x0",
        "input": "0x608060405234801561000f575f5ffd5b506040516109ed3803806109ed83398181016040528101906100319190610184565b6100408161004660201b60201c565b506101af565b61005461012260201b60201c565b156100cc577fffffffffffffffffffffffffffffffffffffffffffffffffffffffff7487392780541561008e57630dc149f05f526004601cfd5b8160601b60601c9150811560ff1b82178155815f7f8be0079c531659141344cd1fd0a4f28419497f9722a3daafe3b4186f6b6457e05f5fa35061011f565b8060601b60601c9050807fffffffffffffffffffffffffffffffffffffffffffffffffffffffff7487392755805f7f8be0079c531659141344cd1fd0a4f28419497f9722a3daafe3b4186f6b6457e05f5fa35b50565b5f90565b5f5ffd5b5f73ffffffffffffffffffffffffffffffffffffffff82169050919050565b5f6101538261012a565b9050919050565b61016381610149565b811461016d575f5ffd5b50565b5f8151905061017e8161015a565b92915050565b5f6020828403121561019957610198610126565b5b5f6101a684828501610170565b91505092915050565b610831806101bc5f395ff3fe608060405260043610610085575f3560e01c8063715018a611610058578063715018a6146100ed5780638da5cb5b146100f7578063f04e283e14610121578063f2fde38b1461013d578063fee81cf41461015957610085565b806306b091f91461008957806325692962146100b157806354d1f13d146100bb57806366168bd7146100c5575b5f5ffd5b348015610094575f5ffd5b506100af60048036038101906100aa919061060e565b610195565b005b6100b9610260565b005b6100c36102b1565b005b3480156100d0575f5ffd5b506100eb60048036038101906100e6919061060e565b6102ea565b005b6100f56103b7565b005b348015610102575f5ffd5b5061010b6103ca565b604051610118919061065b565b60405180910390f35b61013b60048036038101906101369190610674565b6103f2565b005b61015760048036038101906101529190610674565b610430565b005b348015610164575f5ffd5b5061017f600480360381019061017a9190610674565b610459565b60405161018c91906106ae565b60405180910390f35b61019d610472565b5f8273ffffffffffffffffffffffffffffffffffffffff1663a9059cbb33846040518363ffffffff1660e01b81526004016101d99291906106c7565b6020604051808303815f875af11580156101f5573d5f5f3e3d5ffd5b505050506040513d601f19601f820116820180604052508101906102199190610723565b90508061025b576040517f08c379a0000000000000000000000000000000000000000000000000000000008152600401610252906107a8565b60405180910390fd5b505050565b5f6102696104a9565b67ffffffffffffffff164201905063389a75e1600c52335f52806020600c2055337fdbf36a107da19e49527a7176a1babf963b4b0ff8cde35ee35d6cd8f1f9ac7e1d5f5fa250565b63389a75e1600c52335f525f6020600c2055337ffa7b8eab7da67f412cc9575ed43464468f9bfbae89d1675917346ca6d8fe3c925f5fa2565b6102f2610472565b5f8273ffffffffffffffffffffffffffffffffffffffff166323b872dd3330856040518463ffffffff1660e01b8152600401610330939291906107c6565b6020604051808303815f875af115801561034c573d5f5f3e3d5ffd5b505050506040513d601f19601f820116820180604052508101906103709190610723565b9050806103b2576040517f08c379a00000000000000000000000000000000000000000000000000000000081526004016103a9906107a8565b60405180910390fd5b505050565b6103bf610472565b6103c85f6104b3565b565b5f7fffffffffffffffffffffffffffffffffffffffffffffffffffffffff7487392754905090565b6103fa610472565b63389a75e1600c52805f526020600c20805442111561042057636f5e88185f526004601cfd5b5f81555061042d816104b3565b50565b610438610472565b8060601b61044d57637448fbae5f526004601cfd5b610456816104b3565b50565b5f63389a75e1600c52815f526020600c20549050919050565b7fffffffffffffffffffffffffffffffffffffffffffffffffffffffff748739275433146104a7576382b429005f526004601cfd5b565b5f6202a300905090565b6104bb610579565b15610520577fffffffffffffffffffffffffffffffffffffffffffffffffffffffff748739278160601b60601c91508181547f8be0079c531659141344cd1fd0a4f28419497f9722a3daafe3b4186f6b6457e05f5fa3811560ff1b8217815550610576565b7fffffffffffffffffffffffffffffffffffffffffffffffffffffffff748739278160601b60601c91508181547f8be0079c531659141344cd1fd0a4f28419497f9722a3daafe3b4186f6b6457e05f5fa3818155505b50565b5f90565b5f5ffd5b5f73ffffffffffffffffffffffffffffffffffffffff82169050919050565b5f6105aa82610581565b9050919050565b6105ba816105a0565b81146105c4575f5ffd5b50565b5f813590506105d5816105b1565b92915050565b5f819050919050565b6105ed816105db565b81146105f7575f5ffd5b50565b5f81359050610608816105e4565b92915050565b5f5f604083850312156106245761062361057d565b5b5f610631858286016105c7565b9250506020610642858286016105fa565b9150509250929050565b610655816105a0565b82525050565b5f60208201905061066e5f83018461064c565b92915050565b5f602082840312156106895761068861057d565b5b5f610696848285016105c7565b91505092915050565b6106a8816105db565b82525050565b5f6020820190506106c15f83018461069f565b92915050565b5f6040820190506106da5f83018561064c565b6106e7602083018461069f565b9392505050565b5f8115159050919050565b610702816106ee565b811461070c575f5ffd5b50565b5f8151905061071d816106f9565b92915050565b5f602082840312156107385761073761057d565b5b5f6107458482850161070f565b91505092915050565b5f82825260208201905092915050565b7f5472616e73666572206661696c656400000000000000000000000000000000005f82015250565b5f610792600f8361074e565b915061079d8261075e565b602082019050919050565b5f6020820190508181035f8301526107bf81610786565b9050919050565b5f6060820190506107d95f83018661064c565b6107e6602083018561064c565b6107f3604083018461069f565b94935050505056fea264697066735822122058460b2dd873221974e14e524986aea0479ed235b9ea44cf61cb7eee9340799064736f6c634300081f00330000000000000000000000002f05b1546b2e5170db125708b228e03573ecc5e0",
        "nonce": "0x0",
        "chainId": "0xa5bd",
        "feeToken": null,
        "calls": [],
        "keyType": null,
        "keyData": null
      },
      "additionalContracts": [],
      "isFixedGasLimit": false
    },
    {
      "hash": "0x4107245fc4ba69119fe8e758bf72d711e661307efb725f571b6cd80587d2b507",
      "transactionType": "CALL",
      "contractName": null,
      "contractAddress": "0x20c0000000000000000000000000000000000001",
      "function": "approve(address,uint256)",
      "arguments": [
        "0xac4799A4ce8dC9225Afeb02092F51d6Db11bAE8c",
        "115792089237316195423570985008687907853269984665640564039457584007913129639935"
      ],
      "transaction": {
        "from": "0x2f05b1546b2e5170db125708b228e03573ecc5e0",
        "to": "0x20c0000000000000000000000000000000000001",
        "value": "0x0",
        "input": "0x095ea7b3000000000000000000000000ac4799a4ce8dc9225afeb02092f51d6db11bae8cffffffffffffffffffffffffffffffffffffffffffffffffffffffffffffffff",
        "nonce": "0x1",
        "chainId": "0xa5bd",
        "feeToken": null,
        "calls": [],
        "keyType": null,
        "keyData": null
      },
      "additionalContracts": [],
      "isFixedGasLimit": false
    },
    {
      "hash": "0xe04f4478d80b2974f12452bfc1adc1db89733d19633d705ce3f9a47cdb17c8f6",
      "transactionType": "CALL",
      "contractName": "Vault",
      "contractAddress": "0xac4799a4ce8dc9225afeb02092f51d6db11bae8c",
      "function": "depositTokens(address,uint256)",
      "arguments": [
        "0x20C0000000000000000000000000000000000001",
        "1"
      ],
      "transaction": {
        "from": "0x2f05b1546b2e5170db125708b228e03573ecc5e0",
        "to": "0xac4799a4ce8dc9225afeb02092f51d6db11bae8c",
        "value": "0x0",
        "input": "0x66168bd700000000000000000000000020c00000000000000000000000000000000000010000000000000000000000000000000000000000000000000000000000000001",
        "nonce": "0x2",
        "chainId": "0xa5bd",
        "feeToken": null,
        "calls": [],
        "keyType": null,
        "keyData": null
      },
      "additionalContracts": [],
      "isFixedGasLimit": false
    },
    {
      "hash": "0x161429c49fc91c472cf9041777784a4b1b280030e0477a5dfaca6bcd5b748214",
      "transactionType": "CALL",
      "contractName": "Vault",
      "contractAddress": "0xac4799a4ce8dc9225afeb02092f51d6db11bae8c",
      "function": "withdrawTokens(address,uint256)",
      "arguments": [
        "0x20C0000000000000000000000000000000000001",
        "1"
      ],
      "transaction": {
        "from": "0x2f05b1546b2e5170db125708b228e03573ecc5e0",
        "to": "0xac4799a4ce8dc9225afeb02092f51d6db11bae8c",
        "value": "0x0",
        "input": "0x06b091f900000000000000000000000020c00000000000000000000000000000000000010000000000000000000000000000000000000000000000000000000000000001",
        "nonce": "0x3",
        "chainId": "0xa5bd",
        "feeToken": null,
        "calls": [],
        "keyType": null,
        "keyData": null
      },
      "additionalContracts": [],
      "isFixedGasLimit": false
    }
  ],
  "receipts": [
    {
      "type": "0x2",
      "status": "0x1",
      "cumulativeGasUsed": "0x669e4b",
      "logs": [
        {
          "address": "0xac4799a4ce8dc9225afeb02092f51d6db11bae8c",
          "topics": [
            "0x8be0079c531659141344cd1fd0a4f28419497f9722a3daafe3b4186f6b6457e0",
            "0x0000000000000000000000000000000000000000000000000000000000000000",
            "0x0000000000000000000000002f05b1546b2e5170db125708b228e03573ecc5e0"
          ],
          "data": "0x",
          "blockHash": "0x9c480f383c16f4c2b972cf3160ffe917f718e89cf0418d16a3745c5a497037fb",
          "blockNumber": "0x5b7455",
          "blockTimestamp": "0x6943d340",
          "transactionHash": "0xbde6a4426c3cdb325686f749b99e6db30982acd3887f2b19bcb99bb7f8d0a9e7",
          "transactionIndex": "0x26",
          "logIndex": "0x5c",
          "removed": false
        },
        {
          "address": "0x20c0000000000000000000000000000000000000",
          "topics": [
            "0xddf252ad1be2c89b69c2b068fc378daa952ba7f163c4a11628f55a4df523b3ef",
            "0x0000000000000000000000002f05b1546b2e5170db125708b228e03573ecc5e0",
            "0x000000000000000000000000feec000000000000000000000000000000000000"
          ],
          "data": "0x00000000000000000000000000000000000000000000000000000000000014f9",
          "blockHash": "0x9c480f383c16f4c2b972cf3160ffe917f718e89cf0418d16a3745c5a497037fb",
          "blockNumber": "0x5b7455",
          "blockTimestamp": "0x6943d340",
          "transactionHash": "0xbde6a4426c3cdb325686f749b99e6db30982acd3887f2b19bcb99bb7f8d0a9e7",
          "transactionIndex": "0x26",
          "logIndex": "0x5d",
          "removed": false
        }
      ],
      "logsBloom": "0x00000000000000000000800000000000000000000000000000800000000000000000000000000000000000000100000000000000000000000000000000000000000004000000000000000008000000000001100000000000000000000400000000000000020000000000000000000800020000000000000200000010000000400000000000000000000000010020000000000000800000000000000000000000000020000000000000000000000000000000000000000004000000000000000000000002000000000000000000000000000000000000000000000000000020000000000000000000000000000000000000000000000000000000000000000000",
      "transactionHash": "0xbde6a4426c3cdb325686f749b99e6db30982acd3887f2b19bcb99bb7f8d0a9e7",
      "transactionIndex": "0x26",
      "blockHash": "0x9c480f383c16f4c2b972cf3160ffe917f718e89cf0418d16a3745c5a497037fb",
      "blockNumber": "0x5b7455",
      "gasUsed": "0x830f4",
      "effectiveGasPrice": "0x2540e841e",
      "from": "0x2f05b1546b2e5170db125708b228e03573ecc5e0",
      "to": null,
      "contractAddress": "0xac4799a4ce8dc9225afeb02092f51d6db11bae8c",
      "feeToken": "0x20c0000000000000000000000000000000000000",
      "feePayer": "0x2f05b1546b2e5170db125708b228e03573ecc5e0"
    },
    {
      "type": "0x2",
      "status": "0x1",
      "cumulativeGasUsed": "0x19cca8",
      "logs": [
        {
          "address": "0x20c0000000000000000000000000000000000001",
          "topics": [
            "0x8c5be1e5ebec7d5bd14f71427d1e84f3dd0314c0f7b2291e5b200ac8c7c3b925",
            "0x0000000000000000000000002f05b1546b2e5170db125708b228e03573ecc5e0",
            "0x000000000000000000000000ac4799a4ce8dc9225afeb02092f51d6db11bae8c"
          ],
          "data": "0xffffffffffffffffffffffffffffffffffffffffffffffffffffffffffffffff",
          "blockHash": "0x842db8dc747a1f9f157089a4e843a55d972f69faf5b87cc2e087ab16273a8bed",
          "blockNumber": "0x5b7457",
          "blockTimestamp": "0x6943d341",
          "transactionHash": "0x4107245fc4ba69119fe8e758bf72d711e661307efb725f571b6cd80587d2b507",
          "transactionIndex": "0x12",
          "logIndex": "0x2e",
          "removed": false
        },
        {
          "address": "0x20c0000000000000000000000000000000000001",
          "topics": [
            "0xddf252ad1be2c89b69c2b068fc378daa952ba7f163c4a11628f55a4df523b3ef",
            "0x0000000000000000000000002f05b1546b2e5170db125708b228e03573ecc5e0",
            "0x000000000000000000000000feec000000000000000000000000000000000000"
          ],
          "data": "0x00000000000000000000000000000000000000000000000000000000000001cc",
          "blockHash": "0x842db8dc747a1f9f157089a4e843a55d972f69faf5b87cc2e087ab16273a8bed",
          "blockNumber": "0x5b7457",
          "blockTimestamp": "0x6943d341",
          "transactionHash": "0x4107245fc4ba69119fe8e758bf72d711e661307efb725f571b6cd80587d2b507",
          "transactionIndex": "0x12",
          "logIndex": "0x2f",
          "removed": false
        }
      ],
      "logsBloom": "0x00000000000000000000804000000000000000000000000000000000000000000000000000000000000000000000000000000000000000000000000000200000000004000000000000000008000000000008000000000000000000000000000000000000000008000000000000000000020000000000000000000010000000000000000000000000000000000020000000000000100000000048000000000000020020000000000000000000000000000000000000000004000000000000000000000002000000000000000000000000000000000000000000000000000000000010000000000000000000000000000000000000000000000000000000000000",
      "transactionHash": "0x4107245fc4ba69119fe8e758bf72d711e661307efb725f571b6cd80587d2b507",
      "transactionIndex": "0x12",
      "blockHash": "0x842db8dc747a1f9f157089a4e843a55d972f69faf5b87cc2e087ab16273a8bed",
      "blockNumber": "0x5b7457",
      "gasUsed": "0xb35e",
      "effectiveGasPrice": "0x2540e841e",
      "from": "0x2f05b1546b2e5170db125708b228e03573ecc5e0",
      "to": "0x20c0000000000000000000000000000000000001",
      "contractAddress": null,
      "feeToken": "0x20c0000000000000000000000000000000000001",
      "feePayer": "0x2f05b1546b2e5170db125708b228e03573ecc5e0"
    },
    {
      "type": "0x2",
      "status": "0x1",
      "cumulativeGasUsed": "0x18cac4",
      "logs": [
        {
          "address": "0x20c0000000000000000000000000000000000001",
          "topics": [
            "0xddf252ad1be2c89b69c2b068fc378daa952ba7f163c4a11628f55a4df523b3ef",
            "0x0000000000000000000000002f05b1546b2e5170db125708b228e03573ecc5e0",
            "0x000000000000000000000000ac4799a4ce8dc9225afeb02092f51d6db11bae8c"
          ],
          "data": "0x0000000000000000000000000000000000000000000000000000000000000001",
          "blockHash": "0x28d882c9aa06894209f5b21c908a5a7a7ac6ac053402897f0f3e6064be165d02",
          "blockNumber": "0x5b745a",
          "blockTimestamp": "0x6943d343",
          "transactionHash": "0xe04f4478d80b2974f12452bfc1adc1db89733d19633d705ce3f9a47cdb17c8f6",
          "transactionIndex": "0x17",
          "logIndex": "0x34",
          "removed": false
        },
        {
          "address": "0x20c0000000000000000000000000000000000000",
          "topics": [
            "0xddf252ad1be2c89b69c2b068fc378daa952ba7f163c4a11628f55a4df523b3ef",
            "0x0000000000000000000000002f05b1546b2e5170db125708b228e03573ecc5e0",
            "0x000000000000000000000000feec000000000000000000000000000000000000"
          ],
          "data": "0x000000000000000000000000000000000000000000000000000000000000031f",
          "blockHash": "0x28d882c9aa06894209f5b21c908a5a7a7ac6ac053402897f0f3e6064be165d02",
          "blockNumber": "0x5b745a",
          "blockTimestamp": "0x6943d343",
          "transactionHash": "0xe04f4478d80b2974f12452bfc1adc1db89733d19633d705ce3f9a47cdb17c8f6",
          "transactionIndex": "0x17",
          "logIndex": "0x35",
          "removed": false
        }
      ],
      "logsBloom": "0x00000000000000000000804000000000000000000000000000000000000000000000000000000000000000000100000000000000000000000000000000000000000004000000000000000008000000000008000000000000000000000400000000000000000008000000000000000000020000000000000000000010000000000000000000000000000000000020000000000000900000000048000000000000000020000000000000000000000000000000000000000004000000000000000000000002000000000000000000000000000000000000000000000000000000000000000000000000000000000000000000000000000000000000000000000000",
      "transactionHash": "0xe04f4478d80b2974f12452bfc1adc1db89733d19633d705ce3f9a47cdb17c8f6",
      "transactionIndex": "0x17",
      "blockHash": "0x28d882c9aa06894209f5b21c908a5a7a7ac6ac053402897f0f3e6064be165d02",
      "blockNumber": "0x5b745a",
      "gasUsed": "0x137f4",
      "effectiveGasPrice": "0x2540e841e",
      "from": "0x2f05b1546b2e5170db125708b228e03573ecc5e0",
      "to": "0xac4799a4ce8dc9225afeb02092f51d6db11bae8c",
      "contractAddress": null,
      "feeToken": "0x20c0000000000000000000000000000000000000",
      "feePayer": "0x2f05b1546b2e5170db125708b228e03573ecc5e0"
    },
    {
      "type": "0x2",
      "status": "0x1",
      "cumulativeGasUsed": "0x25f9b5",
      "logs": [
        {
          "address": "0x20c0000000000000000000000000000000000001",
          "topics": [
            "0xddf252ad1be2c89b69c2b068fc378daa952ba7f163c4a11628f55a4df523b3ef",
            "0x000000000000000000000000ac4799a4ce8dc9225afeb02092f51d6db11bae8c",
            "0x0000000000000000000000002f05b1546b2e5170db125708b228e03573ecc5e0"
          ],
          "data": "0x0000000000000000000000000000000000000000000000000000000000000001",
          "blockHash": "0xfde43e7d802e0fb95339a22cfd2e82a53746859181ab8021616293fdedc6a9db",
          "blockNumber": "0x5b745c",
          "blockTimestamp": "0x6943d344",
          "transactionHash": "0x161429c49fc91c472cf9041777784a4b1b280030e0477a5dfaca6bcd5b748214",
          "transactionIndex": "0x7",
          "logIndex": "0xb",
          "removed": false
        },
        {
          "address": "0x20c0000000000000000000000000000000000000",
          "topics": [
            "0xddf252ad1be2c89b69c2b068fc378daa952ba7f163c4a11628f55a4df523b3ef",
            "0x0000000000000000000000002f05b1546b2e5170db125708b228e03573ecc5e0",
            "0x000000000000000000000000feec000000000000000000000000000000000000"
          ],
          "data": "0x000000000000000000000000000000000000000000000000000000000000025e",
          "blockHash": "0xfde43e7d802e0fb95339a22cfd2e82a53746859181ab8021616293fdedc6a9db",
          "blockNumber": "0x5b745c",
          "blockTimestamp": "0x6943d344",
          "transactionHash": "0x161429c49fc91c472cf9041777784a4b1b280030e0477a5dfaca6bcd5b748214",
          "transactionIndex": "0x7",
          "logIndex": "0xc",
          "removed": false
        }
      ],
      "logsBloom": "0x00000000000000000000804000000000000000000000000000000000000000000000000000000000000000000100000000000000000000000000000000000000000004000000000000000008000000000008000000000000000000000400000000000000000008000000000000000000020000000000000000000010000000000000000000000000000000000020000000000000900000000048000000000000000020000000000000000000000000000000000000000004000000000000000000000002000000000000000000000000000000000000000000000000000000000000000000000000000000000000000000000000000000000000000000000000",
      "transactionHash": "0x161429c49fc91c472cf9041777784a4b1b280030e0477a5dfaca6bcd5b748214",
      "transactionIndex": "0x7",
      "blockHash": "0xfde43e7d802e0fb95339a22cfd2e82a53746859181ab8021616293fdedc6a9db",
      "blockNumber": "0x5b745c",
      "gasUsed": "0xec7b",
      "effectiveGasPrice": "0x2540e841e",
      "from": "0x2f05b1546b2e5170db125708b228e03573ecc5e0",
      "to": "0xac4799a4ce8dc9225afeb02092f51d6db11bae8c",
      "contractAddress": null,
      "feeToken": "0x20c0000000000000000000000000000000000000",
      "feePayer": "0x2f05b1546b2e5170db125708b228e03573ecc5e0"
    }
  ],
  "libraries": [],
  "pending": [],
  "returns": {},
  "timestamp": 1766052677593,
  "chain": 42429,
  "commit": null
}