{
  "transactions": [
    {
      "hash": "0xe7a4cea667198869b89bc99ab3d7fa12ece807769335ea3bc615a97e0bf1fbef",
      "transactionType": "CREATE",
      "contractName": "Vault",
      "contractAddress": "0x907b4c5d0f11cf1a31e73f1fccb0eba000f27562",
      "function": null,
      "arguments": [
        "0x2f05B1546B2E5170DB125708b228E03573ecc5E0"
      ],
      "transaction": {
        "from": "0x2f05b1546b2e5170db125708b228e03573ecc5e0",
        "value": "0x0",
        "input": "0x608060405234801561000f575f5ffd5b506040516109ed3803806109ed83398181016040528101906100319190610184565b6100408161004660201b60201c565b506101af565b61005461012260201b60201c565b156100cc577fffffffffffffffffffffffffffffffffffffffffffffffffffffffff7487392780541561008e57630dc149f05f526004601cfd5b8160601b60601c9150811560ff1b82178155815f7f8be0079c531659141344cd1fd0a4f28419497f9722a3daafe3b4186f6b6457e05f5fa35061011f565b8060601b60601c9050807fffffffffffffffffffffffffffffffffffffffffffffffffffffffff7487392755805f7f8be0079c531659141344cd1fd0a4f28419497f9722a3daafe3b4186f6b6457e05f5fa35b50565b5f90565b5f5ffd5b5f73ffffffffffffffffffffffffffffffffffffffff82169050919050565b5f6101538261012a565b9050919050565b61016381610149565b811461016d575f5ffd5b50565b5f8151905061017e8161015a565b92915050565b5f6020828403121561019957610198610126565b5b5f6101a684828501610170565b91505092915050565b610831806101bc5f395ff3fe608060405260043610610085575f3560e01c8063715018a611610058578063715018a6146100ed5780638da5cb5b146100f7578063f04e283e14610121578063f2fde38b1461013d578063fee81cf41461015957610085565b806306b091f91461008957806325692962146100b157806354d1f13d146100bb57806366168bd7146100c5575b5f5ffd5b348015610094575f5ffd5b506100af60048036038101906100aa919061060e565b610195565b005b6100b9610260565b005b6100c36102b1565b005b3480156100d0575f5ffd5b506100eb60048036038101906100e6919061060e565b6102ea565b005b6100f56103b7565b005b348015610102575f5ffd5b5061010b6103ca565b604051610118919061065b565b60405180910390f35b61013b60048036038101906101369190610674565b6103f2565b005b61015760048036038101906101529190610674565b610430565b005b348015610164575f5ffd5b5061017f600480360381019061017a9190610674565b610459565b60405161018c91906106ae565b60405180910390f35b61019d610472565b5f8273ffffffffffffffffffffffffffffffffffffffff1663a9059cbb33846040518363ffffffff1660e01b81526004016101d99291906106c7565b6020604051808303815f875af11580156101f5573d5f5f3e3d5ffd5b505050506040513d601f19601f820116820180604052508101906102199190610723565b90508061025b576040517f08c379a0000000000000000000000000000000000000000000000000000000008152600401610252906107a8565b60405180910390fd5b505050565b5f6102696104a9565b67ffffffffffffffff164201905063389a75e1600c52335f52806020600c2055337fdbf36a107da19e49527a7176a1babf963b4b0ff8cde35ee35d6cd8f1f9ac7e1d5f5fa250565b63389a75e1600c52335f525f6020600c2055337ffa7b8eab7da67f412cc9575ed43464468f9bfbae89d1675917346ca6d8fe3c925f5fa2565b6102f2610472565b5f8273ffffffffffffffffffffffffffffffffffffffff166323b872dd3330856040518463ffffffff1660e01b8152600401610330939291906107c6565b6020604051808303815f875af115801561034c573d5f5f3e3d5ffd5b505050506040513d601f19601f820116820180604052508101906103709190610723565b9050806103b2576040517f08c379a00000000000000000000000000000000000000000000000000000000081526004016103a9906107a8565b60405180910390fd5b505050565b6103bf610472565b6103c85f6104b3565b565b5f7fffffffffffffffffffffffffffffffffffffffffffffffffffffffff7487392754905090565b6103fa610472565b63389a75e1600c52805f526020600c20805442111561042057636f5e88185f526004601cfd5b5f81555061042d816104b3565b50565b610438610472565b8060601b61044d57637448fbae5f526004601cfd5b610456816104b3565b50565b5f63389a75e1600c52815f526020600c20549050919050565b7fffffffffffffffffffffffffffffffffffffffffffffffffffffffff748739275433146104a7576382b429005f526004601cfd5b565b5f6202a300905090565b6104bb610579565b15610520577fffffffffffffffffffffffffffffffffffffffffffffffffffffffff748739278160601b60601c91508181547f8be0079c531659141344cd1fd0a4f28419497f9722a3daafe3b4186f6b6457e05f5fa3811560ff1b8217815550610576565b7fffffffffffffffffffffffffffffffffffffffffffffffffffffffff748739278160601b60601c91508181547f8be0079c531659141344cd1fd0a4f28419497f9722a3daafe3b4186f6b6457e05f5fa3818155505b50565b5f90565b5f5ffd5b5f73ffffffffffffffffffffffffffffffffffffffff82169050919050565b5f6105aa82610581565b9050919050565b6105ba816105a0565b81146105c4575f5ffd5b50565b5f813590506105d5816105b1565b92915050565b5f819050919050565b6105ed816105db565b81146105f7575f5ffd5b50565b5f81359050610608816105e4565b92915050565b5f5f604083850312156106245761062361057d565b5b5f610631858286016105c7565b9250506020610642858286016105fa565b9150509250929050565b610655816105a0565b82525050565b5f60208201905061066e5f83018461064c565b92915050565b5f602082840312156106895761068861057d565b5b5f610696848285016105c7565b91505092915050565b6106a8816105db565b82525050565b5f6020820190506106c15f83018461069f565b92915050565b5f6040820190506106da5f83018561064c565b6106e7602083018461069f565b9392505050565b5f8115159050919050565b610702816106ee565b811461070c575f5ffd5b50565b5f8151905061071d816106f9565b92915050565b5f602082840312156107385761073761057d565b5b5f6107458482850161070f565b91505092915050565b5f82825260208201905092915050565b7f5472616e73666572206661696c656400000000000000000000000000000000005f82015250565b5f610792600f8361074e565b915061079d8261075e565b602082019050919050565b5f6020820190508181035f8301526107bf81610786565b9050919050565b5f6060820190506107d95f83018661064c565b6107e6602083018561064c565b6107f3604083018461069f565b94935050505056fea264697066735822122058460b2dd873221974e14e524986aea0479ed235b9ea44cf61cb7eee9340799064736f6c634300081f00330000000000000000000000002f05b1546b2e5170db125708b228e03573ecc5e0",
        "nonce": "0x4b",
        "chainId": "0xa5bd",
        "feeToken": null,
        "calls": [],
        "keyType": null,
        "keyData": null
      },
      "additionalContracts": [],
      "isFixedGasLimit": false
    },
    {
      "hash": "0x0e39cbe4fff1b0d452801cb644933230b2f644a2d1cbaf4c368f88e75fc778ca",
      "transactionType": "CALL",
      "contractName": null,
      "contractAddress": "0x20c000000000000000000000000000000001bedc",
      "function": "approve(address,uint256)",
      "arguments": [
        "0x907B4C5D0f11Cf1a31e73F1fccb0EbA000F27562",
        "115792089237316195423570985008687907853269984665640564039457584007913129639935"
      ],
      "transaction": {
        "from": "0x2f05b1546b2e5170db125708b228e03573ecc5e0",
        "to": "0x20c000000000000000000000000000000001bedc",
        "value": "0x0",
        "input": "0x095ea7b3000000000000000000000000907b4c5d0f11cf1a31e73f1fccb0eba000f27562ffffffffffffffffffffffffffffffffffffffffffffffffffffffffffffffff",
        "nonce": "0x4c",
        "chainId": "0xa5bd",
        "feeToken": null,
        "calls": [],
        "keyType": null,
        "keyData": null
      },
      "additionalContracts": [],
      "isFixedGasLimit": false
    },
    {
      "hash": "0x8968539c9a9a2e892e95be36d1148e74420861a7cbfcbf0949aa10251f99087a",
      "transactionType": "CALL",
      "contractName": "Vault",
      "contractAddress": "0x907b4c5d0f11cf1a31e73f1fccb0eba000f27562",
      "function": "depositTokens(address,uint256)",
      "arguments": [
        "0x20c000000000000000000000000000000001BedC",
        "1"
      ],
      "transaction": {
        "from": "0x2f05b1546b2e5170db125708b228e03573ecc5e0",
        "to": "0x907b4c5d0f11cf1a31e73f1fccb0eba000f27562",
        "value": "0x0",
        "input": "0x66168bd700000000000000000000000020c000000000000000000000000000000001bedc0000000000000000000000000000000000000000000000000000000000000001",
        "nonce": "0x4d",
        "chainId": "0xa5bd",
        "feeToken": null,
        "calls": [],
        "keyType": null,
        "keyData": null
      },
      "additionalContracts": [],
      "isFixedGasLimit": false
    },
    {
      "hash": "0x3174b48ae5cc86e337e821bebc67d4bbf6b8aa573d94fa5b728c9854da718b88",
      "transactionType": "CALL",
      "contractName": "Vault",
      "contractAddress": "0x907b4c5d0f11cf1a31e73f1fccb0eba000f27562",
      "function": "withdrawTokens(address,uint256)",
      "arguments": [
        "0x20c000000000000000000000000000000001BedC",
        "1"
      ],
      "transaction": {
        "from": "0x2f05b1546b2e5170db125708b228e03573ecc5e0",
        "to": "0x907b4c5d0f11cf1a31e73f1fccb0eba000f27562",
        "value": "0x0",
        "input": "0x06b091f900000000000000000000000020c000000000000000000000000000000001bedc0000000000000000000000000000000000000000000000000000000000000001",
        "nonce": "0x4e",
        "chainId": "0xa5bd",
        "feeToken": null,
        "calls": [],
        "keyType": null,
        "keyData": null
      },
      "additionalContracts": [],
      "isFixedGasLimit": false
    }
  ],
  "receipts": [
    {
      "type": "0x2",
      "status": "0x1",
      "cumulativeGasUsed": "0x1a5ae9",
      "logs": [
        {
          "address": "0x907b4c5d0f11cf1a31e73f1fccb0eba000f27562",
          "topics": [
            "0x8be0079c531659141344cd1fd0a4f28419497f9722a3daafe3b4186f6b6457e0",
            "0x0000000000000000000000000000000000000000000000000000000000000000",
            "0x0000000000000000000000002f05b1546b2e5170db125708b228e03573ecc5e0"
          ],
          "data": "0x",
          "blockHash": "0xec10aca07753d57a158bcee052ff09bb4fcb29307be3632cc9dec88fda94542f",
          "blockNumber": "0x5ba3cf",
          "blockTimestamp": "0x6943ec15",
          "transactionHash": "0xe7a4cea667198869b89bc99ab3d7fa12ece807769335ea3bc615a97e0bf1fbef",
          "transactionIndex": "0x9",
          "logIndex": "0x1a",
          "removed": false
        },
        {
          "address": "0x20c0000000000000000000000000000000000001",
          "topics": [
            "0xddf252ad1be2c89b69c2b068fc378daa952ba7f163c4a11628f55a4df523b3ef",
            "0x0000000000000000000000002f05b1546b2e5170db125708b228e03573ecc5e0",
            "0x000000000000000000000000feec000000000000000000000000000000000000"
          ],
          "data": "0x00000000000000000000000000000000000000000000000000000000000014f9",
          "blockHash": "0xec10aca07753d57a158bcee052ff09bb4fcb29307be3632cc9dec88fda94542f",
          "blockNumber": "0x5ba3cf",
          "blockTimestamp": "0x6943ec15",
          "transactionHash": "0xe7a4cea667198869b89bc99ab3d7fa12ece807769335ea3bc615a97e0bf1fbef",
          "transactionIndex": "0x9",
          "logIndex": "0x1b",
          "removed": false
        }
      ],
      "logsBloom": "0x00000000000000000000800000000000000000000000000000800000000000000000000000000000000000000000000000000000000000000000000000000000000004000000000000000008001000000009000000000000000000000000000000000000020000000000000000000800020000000000000000000010000000400000000040000000000000000020000000000000100000000040000000000000000020000000000000000000000000000000000100000004000000000000000000000002000000000000000000000000000000000000000000000000000020000000000000000000000000000000000000000000000000000000000000000000",
      "transactionHash": "0xe7a4cea667198869b89bc99ab3d7fa12ece807769335ea3bc615a97e0bf1fbef",
      "transactionIndex": "0x9",
      "blockHash": "0xec10aca07753d57a158bcee052ff09bb4fcb29307be3632cc9dec88fda94542f",
      "blockNumber": "0x5ba3cf",
      "gasUsed": "0x830f4",
      "effectiveGasPrice": "0x2540e841e",
      "from": "0x2f05b1546b2e5170db125708b228e03573ecc5e0",
      "to": null,
      "contractAddress": "0x907b4c5d0f11cf1a31e73f1fccb0eba000f27562",
      "feeToken": "0x20c0000000000000000000000000000000000001",
      "feePayer": "0x2f05b1546b2e5170db125708b228e03573ecc5e0"
    },
    {
      "type": "0x2",
      "status": "0x1",
      "cumulativeGasUsed": "0x148419",
      "logs": [
        {
          "address": "0x20c000000000000000000000000000000001bedc",
          "topics": [
            "0x8c5be1e5ebec7d5bd14f71427d1e84f3dd0314c0f7b2291e5b200ac8c7c3b925",
            "0x0000000000000000000000002f05b1546b2e5170db125708b228e03573ecc5e0",
            "0x000000000000000000000000907b4c5d0f11cf1a31e73f1fccb0eba000f27562"
          ],
          "data": "0xffffffffffffffffffffffffffffffffffffffffffffffffffffffffffffffff",
          "blockHash": "0x449a1484d7d22a84c79dab89b7bb358f70c54478339f17dff3c6a421f6caf5ee",
          "blockNumber": "0x5ba3d3",
          "blockTimestamp": "0x6943ec17",
          "transactionHash": "0x0e39cbe4fff1b0d452801cb644933230b2f644a2d1cbaf4c368f88e75fc778ca",
          "transactionIndex": "0x14",
          "logIndex": "0x2c",
          "removed": false
        },
        {
          "address": "0x20c0000000000000000000000000000000000001",
          "topics": [
            "0xddf252ad1be2c89b69c2b068fc378daa952ba7f163c4a11628f55a4df523b3ef",
            "0x0000000000000000000000002f05b1546b2e5170db125708b228e03573ecc5e0",
            "0x000000000000000000000000feec000000000000000000000000000000000000"
          ],
          "data": "0x00000000000000000000000000000000000000000000000000000000000001cc",
          "blockHash": "0x449a1484d7d22a84c79dab89b7bb358f70c54478339f17dff3c6a421f6caf5ee",
          "blockNumber": "0x5ba3d3",
          "blockTimestamp": "0x6943ec17",
          "transactionHash": "0x0e39cbe4fff1b0d452801cb644933230b2f644a2d1cbaf4c368f88e75fc778ca",
          "transactionIndex": "0x14",
          "logIndex": "0x2d",
          "removed": false
        }
      ],
      "logsBloom": "0x00000000000000000000800000000000000000000000000000000000000000000000100000000000000000000000000000000000000000000000000000200000000004000000000000000008000004000008000000000000000000000000000000000000000000000000000000000000020000000000000000000010000000000000000000000000000000000020000000000000100000000240000000000000020020000000000000000000000000000000000000000004000000000000002000000002000000000000000000000080000000000000000000000000000000000010000000000000000000080000000000000000000000000000000000000000",
      "transactionHash": "0x0e39cbe4fff1b0d452801cb644933230b2f644a2d1cbaf4c368f88e75fc778ca",
      "transactionIndex": "0x14",
      "blockHash": "0x449a1484d7d22a84c79dab89b7bb358f70c54478339f17dff3c6a421f6caf5ee",
      "blockNumber": "0x5ba3d3",
      "gasUsed": "0xb352",
      "effectiveGasPrice": "0x2540e841e",
      "from": "0x2f05b1546b2e5170db125708b228e03573ecc5e0",
      "to": "0x20c000000000000000000000000000000001bedc",
      "contractAddress": null,
      "feeToken": "0x20c0000000000000000000000000000000000001",
      "feePayer": "0x2f05b1546b2e5170db125708b228e03573ecc5e0"
    },
    {
      "type": "0x2",
      "status": "0x1",
      "cumulativeGasUsed": "0x12c7d5",
      "logs": [
        {
          "address": "0x20c000000000000000000000000000000001bedc",
          "topics": [
            "0xddf252ad1be2c89b69c2b068fc378daa952ba7f163c4a11628f55a4df523b3ef",
            "0x0000000000000000000000002f05b1546b2e5170db125708b228e03573ecc5e0",
            "0x000000000000000000000000907b4c5d0f11cf1a31e73f1fccb0eba000f27562"
          ],
          "data": "0x0000000000000000000000000000000000000000000000000000000000000001",
          "blockHash": "0xa330970f6874fabe3f310bcb25cffdbc942e8a3e1adbe288f186ab195a789a0f",
          "blockNumber": "0x5ba3d8",
          "blockTimestamp": "0x6943ec19",
          "transactionHash": "0x8968539c9a9a2e892e95be36d1148e74420861a7cbfcbf0949aa10251f99087a",
          "transactionIndex": "0x5",
          "logIndex": "0x9",
          "removed": false
        },
        {
          "address": "0x20c0000000000000000000000000000000000001",
          "topics": [
            "0xddf252ad1be2c89b69c2b068fc378daa952ba7f163c4a11628f55a4df523b3ef",
            "0x0000000000000000000000002f05b1546b2e5170db125708b228e03573ecc5e0",
            "0x000000000000000000000000feec000000000000000000000000000000000000"
          ],
          "data": "0x0000000000000000000000000000000000000000000000000000000000000352",
          "blockHash": "0xa330970f6874fabe3f310bcb25cffdbc942e8a3e1adbe288f186ab195a789a0f",
          "blockNumber": "0x5ba3d8",
          "blockTimestamp": "0x6943ec19",
          "transactionHash": "0x8968539c9a9a2e892e95be36d1148e74420861a7cbfcbf0949aa10251f99087a",
          "transactionIndex": "0x5",
          "logIndex": "0xa",
          "removed": false
        }
      ],
      "logsBloom": "0x00000000000000000000800000000000000000000000000000000000000000000000100000000000000000000000000000000000000000000000000000000000000004000000000000000008000004000008000000000000000000000000000000000000000000000000000000000000020000000000000000000010000000000000000000000000000000000020000000000000100000000240000000000000000020000000000000000000000000000000000000000004000000000000002000000002000000000000000000000080000000000000000000000000000000000000000000000000000000080000000000000000000000000000000000000000",
      "transactionHash": "0x8968539c9a9a2e892e95be36d1148e74420861a7cbfcbf0949aa10251f99087a",
      "transactionIndex": "0x5",
      "blockHash": "0xa330970f6874fabe3f310bcb25cffdbc942e8a3e1adbe288f186ab195a789a0f",
      "blockNumber": "0x5ba3d8",
      "gasUsed": "0x14bf8",
      "effectiveGasPrice": "0x2540e841e",
      "from": "0x2f05b1546b2e5170db125708b228e03573ecc5e0",
      "to": "0x907b4c5d0f11cf1a31e73f1fccb0eba000f27562",
      "contractAddress": null,
      "feeToken": "0x20c0000000000000000000000000000000000001",
      "feePayer": "0x2f05b1546b2e5170db125708b228e03573ecc5e0"
    },
    {
      "type": "0x2",
      "status": "0x1",
      "cumulativeGasUsed": "0x1967a3",
      "logs": [
        {
          "address": "0x20c000000000000000000000000000000001bedc",
          "topics": [
            "0xddf252ad1be2c89b69c2b068fc378daa952ba7f163c4a11628f55a4df523b3ef",
            "0x000000000000000000000000907b4c5d0f11cf1a31e73f1fccb0eba000f27562",
            "0x0000000000000000000000002f05b1546b2e5170db125708b228e03573ecc5e0"
          ],
          "data": "0x0000000000000000000000000000000000000000000000000000000000000001",
          "blockHash": "0xce9a86b3453268bc7c19779dfd9cc92e7cb98b46b0e9ce960f8cf5f3090df90c",
          "blockNumber": "0x5ba3db",
          "blockTimestamp": "0x6943ec1b",
          "transactionHash": "0x3174b48ae5cc86e337e821bebc67d4bbf6b8aa573d94fa5b728c9854da718b88",
          "transactionIndex": "0x10",
          "logIndex": "0x27",
          "removed": false
        },
        {
          "address": "0x20c0000000000000000000000000000000000001",
          "topics": [
            "0xddf252ad1be2c89b69c2b068fc378daa952ba7f163c4a11628f55a4df523b3ef",
            "0x0000000000000000000000002f05b1546b2e5170db125708b228e03573ecc5e0",
            "0x000000000000000000000000feec000000000000000000000000000000000000"
          ],
          "data": "0x0000000000000000000000000000000000000000000000000000000000000291",
          "blockHash": "0xce9a86b3453268bc7c19779dfd9cc92e7cb98b46b0e9ce960f8cf5f3090df90c",
          "blockNumber": "0x5ba3db",
          "blockTimestamp": "0x6943ec1b",
          "transactionHash": "0x3174b48ae5cc86e337e821bebc67d4bbf6b8aa573d94fa5b728c9854da718b88",
          "transactionIndex": "0x10",
          "logIndex": "0x28",
          "removed": false
        }
      ],
      "logsBloom": "0x00000000000000000000800000000000000000000000000000000000000000000000100000000000000000000000000000000000000000000000000000000000000004000000000000000008000004000008000000000000000000000000000000000000000000000000000000000000020000000000000000000010000000000000000000000000000000000020000000000000100000000240000000000000000020000000000000000000000000000000000000000004000000000000002000000002000000000000000000000080000000000000000000000000000000000000000000000000000000080000000000000000000000000000000000000000",
      "transactionHash": "0x3174b48ae5cc86e337e821bebc67d4bbf6b8aa573d94fa5b728c9854da718b88",
      "transactionIndex": "0x10",
      "blockHash": "0xce9a86b3453268bc7c19779dfd9cc92e7cb98b46b0e9ce960f8cf5f3090df90c",
      "blockNumber": "0x5ba3db",
      "gasUsed": "0x1007f",
      "effectiveGasPrice": "0x2540e841e",
      "from": "0x2f05b1546b2e5170db125708b228e03573ecc5e0",
      "to": "0x907b4c5d0f11cf1a31e73f1fccb0eba000f27562",
      "contractAddress": null,
      "feeToken": "0x20c0000000000000000000000000000000000001",
      "feePayer": "0x2f05b1546b2e5170db125708b228e03573ecc5e0"
    }
  ],
  "libraries": [],
  "pending": [],
  "returns": {},
  "timestamp": 1766059037983,
  "chain": 42429,
  "commit": "ae8cc9c"
}