{
  "transactions": [
    {
      "hash": "0xa12bd4ead31c4dd670399f9cf764eb2b5970c266753790325aef818b18536ba1",
      "transactionType": "CALL",
      "contractName": null,
      "contractAddress": "0x9b83d808362cfc8f2d63f2ea5d20cfb6a5e87519",
      "function": "approve(address,uint256)",
      "arguments": [
        "0xaDC3969da7550a3C0b01cA9097D64CF96576Bd89",
        "115792089237316195423570985008687907853269984665640564039457584007913129639935"
      ],
      "transaction": {
        "from": "0xe59095e33bf15e60907177eacbbc1b43f85a7154",
        "to": "0x9b83d808362cfc8f2d63f2ea5d20cfb6a5e87519",
        "gas": "0xfce2",
        "value": "0x0",
        "input": "0x095ea7b3000000000000000000000000adc3969da7550a3c0b01ca9097d64cf96576bd89ffffffffffffffffffffffffffffffffffffffffffffffffffffffffffffffff",
        "nonce": "0x10",
        "chainId": "0xa5bd",
        "feeToken": null,
        "calls": [],
        "keyType": null,
        "keyData": null
      },
      "additionalContracts": [],
      "isFixedGasLimit": false
    }
  ],
  "receipts": [
    {
      "type": "0x2",
      "status": "0x1",
      "cumulativeGasUsed": "0x195cf4",
      "logs": [
        {
          "address": "0x9b83d808362cfc8f2d63f2ea5d20cfb6a5e87519",
          "topics": [
            "0x8c5be1e5ebec7d5bd14f71427d1e84f3dd0314c0f7b2291e5b200ac8c7c3b925",
            "0x000000000000000000000000e59095e33bf15e60907177eacbbc1b43f85a7154",
            "0x000000000000000000000000adc3969da7550a3c0b01ca9097d64cf96576bd89"
          ],
          "data": "0xffffffffffffffffffffffffffffffffffffffffffffffffffffffffffffffff",
          "blockHash": "0x548089c3db725c9469e5f541200f811309cfec6d7ae5c65e0e6404413ac7bbe2",
          "blockNumber": "0x5b70df",
          "blockTimestamp": "0x6943d171",
          "transactionHash": "0xa12bd4ead31c4dd670399f9cf764eb2b5970c266753790325aef818b18536ba1",
          "transactionIndex": "0xd",
          "logIndex": "0x1f",
          "removed": false
        },
        {
          "address": "0x20c0000000000000000000000000000000000001",
          "topics": [
            "0xddf252ad1be2c89b69c2b068fc378daa952ba7f163c4a11628f55a4df523b3ef",
            "0x000000000000000000000000e59095e33bf15e60907177eacbbc1b43f85a7154",
            "0x000000000000000000000000feec000000000000000000000000000000000000"
          ],
          "data": "0x00000000000000000000000000000000000000000000000000000000000001d5",
          "blockHash": "0x548089c3db725c9469e5f541200f811309cfec6d7ae5c65e0e6404413ac7bbe2",
          "blockNumber": "0x5b70df",
          "blockTimestamp": "0x6943d171",
          "transactionHash": "0xa12bd4ead31c4dd670399f9cf764eb2b5970c266753790325aef818b18536ba1",
          "transactionIndex": "0xd",
          "logIndex": "0x20",
          "removed": false
        }
      ],
      "logsBloom": "0x00000000002000000000000000000000000000000000000000000000000000200000000000000000000000000000000000000000000400000000000000200000000004000100000000000008000000000008000000000000000000000000000000000000000000000000000000000000000000000000000000000010000000000000000000000000000000000020000000000000100000000040008000000000020020000000000000000000000000004000000000000000000000000000000000000012004000000000000000010000000000000000000000000000000000000010000000000000000000000000000000000000000000000000000000000000",
      "transactionHash": "0xa12bd4ead31c4dd670399f9cf764eb2b5970c266753790325aef818b18536ba1",
      "transactionIndex": "0xd",
      "blockHash": "0x548089c3db725c9469e5f541200f811309cfec6d7ae5c65e0e6404413ac7bbe2",
      "blockNumber": "0x5b70df",
      "gasUsed": "0xb716",
      "effectiveGasPrice": "0x2540e841e",
      "from": "0xe59095e33bf15e60907177eacbbc1b43f85a7154",
      "to": "0x9b83d808362cfc8f2d63f2ea5d20cfb6a5e87519",
      "contractAddress": null,
      "feeToken": "0x20c0000000000000000000000000000000000001",
      "feePayer": "0xe59095e33bf15e60907177eacbbc1b43f85a7154"
    }
  ],
  "libraries": [],
  "pending": [],
  "returns": {},
  "timestamp": 1766052211361,
  "chain": 42429,
  "commit": null
}