{
  "transactions": [
    {
      "hash": "0xcc1450325b62da18fb9f0e703b656f4f8b9102b842d0c09298133190c9039c97",
      "transactionType": "CREATE",
      "contractName": "Vault",
      "contractAddress": "0xf7d64fbcdf8bd4ca54645dadb9709fe3eead4514",
      "function": null,
      "arguments": [
        "0x2f05B1546B2E5170DB125708b228E03573ecc5E0"
      ],
      "transaction": {
        "from": "0x2f05b1546b2e5170db125708b228e03573ecc5e0",
        "gas": "0xaa60a",
        "value": "0x0",
        "input": "0x608060405234801561000f575f5ffd5b506040516109ed3803806109ed83398181016040528101906100319190610184565b6100408161004660201b60201c565b506101af565b61005461012260201b60201c565b156100cc577fffffffffffffffffffffffffffffffffffffffffffffffffffffffff7487392780541561008e57630dc149f05f526004601cfd5b8160601b60601c9150811560ff1b82178155815f7f8be0079c531659141344cd1fd0a4f28419497f9722a3daafe3b4186f6b6457e05f5fa35061011f565b8060601b60601c9050807fffffffffffffffffffffffffffffffffffffffffffffffffffffffff7487392755805f7f8be0079c531659141344cd1fd0a4f28419497f9722a3daafe3b4186f6b6457e05f5fa35b50565b5f90565b5f5ffd5b5f73ffffffffffffffffffffffffffffffffffffffff82169050919050565b5f6101538261012a565b9050919050565b61016381610149565b811461016d575f5ffd5b50565b5f8151905061017e8161015a565b92915050565b5f6020828403121561019957610198610126565b5b5f6101a684828501610170565b91505092915050565b610831806101bc5f395ff3fe608060405260043610610085575f3560e01c8063715018a611610058578063715018a6146100ed5780638da5cb5b146100f7578063f04e283e14610121578063f2fde38b1461013d578063fee81cf41461015957610085565b806306b091f91461008957806325692962146100b157806354d1f13d146100bb57806366168bd7146100c5575b5f5ffd5b348015610094575f5ffd5b506100af60048036038101906100aa919061060e565b610195565b005b6100b9610260565b005b6100c36102b1565b005b3480156100d0575f5ffd5b506100eb60048036038101906100e6919061060e565b6102ea565b005b6100f56103b7565b005b348015610102575f5ffd5b5061010b6103ca565b604051610118919061065b565b60405180910390f35b61013b60048036038101906101369190610674565b6103f2565b005b61015760048036038101906101529190610674565b610430565b005b348015610164575f5ffd5b5061017f600480360381019061017a9190610674565b610459565b60405161018c91906106ae565b60405180910390f35b61019d610472565b5f8273ffffffffffffffffffffffffffffffffffffffff1663a9059cbb33846040518363ffffffff1660e01b81526004016101d99291906106c7565b6020604051808303815f875af11580156101f5573d5f5f3e3d5ffd5b505050506040513d601f19601f820116820180604052508101906102199190610723565b90508061025b576040517f08c379a0000000000000000000000000000000000000000000000000000000008152600401610252906107a8565b60405180910390fd5b505050565b5f6102696104a9565b67ffffffffffffffff164201905063389a75e1600c52335f52806020600c2055337fdbf36a107da19e49527a7176a1babf963b4b0ff8cde35ee35d6cd8f1f9ac7e1d5f5fa250565b63389a75e1600c52335f525f6020600c2055337ffa7b8eab7da67f412cc9575ed43464468f9bfbae89d1675917346ca6d8fe3c925f5fa2565b6102f2610472565b5f8273ffffffffffffffffffffffffffffffffffffffff166323b872dd3330856040518463ffffffff1660e01b8152600401610330939291906107c6565b6020604051808303815f875af115801561034c573d5f5f3e3d5ffd5b505050506040513d601f19601f820116820180604052508101906103709190610723565b9050806103b2576040517f08c379a00000000000000000000000000000000000000000000000000000000081526004016103a9906107a8565b60405180910390fd5b505050565b6103bf610472565b6103c85f6104b3565b565b5f7fffffffffffffffffffffffffffffffffffffffffffffffffffffffff7487392754905090565b6103fa610472565b63389a75e1600c52805f526020600c20805442111561042057636f5e88185f526004601cfd5b5f81555061042d816104b3565b50565b610438610472565b8060601b61044d57637448fbae5f526004601cfd5b610456816104b3565b50565b5f63389a75e1600c52815f526020600c20549050919050565b7fffffffffffffffffffffffffffffffffffffffffffffffffffffffff748739275433146104a7576382b429005f526004601cfd5b565b5f6202a300905090565b6104bb610579565b15610520577fffffffffffffffffffffffffffffffffffffffffffffffffffffffff748739278160601b60601c91508181547f8be0079c531659141344cd1fd0a4f28419497f9722a3daafe3b4186f6b6457e05f5fa3811560ff1b8217815550610576565b7fffffffffffffffffffffffffffffffffffffffffffffffffffffffff748739278160601b60601c91508181547f8be0079c531659141344cd1fd0a4f28419497f9722a3daafe3b4186f6b6457e05f5fa3818155505b50565b5f90565b5f5ffd5b5f73ffffffffffffffffffffffffffffffffffffffff82169050919050565b5f6105aa82610581565b9050919050565b6105ba816105a0565b81146105c4575f5ffd5b50565b5f813590506105d5816105b1565b92915050565b5f819050919050565b6105ed816105db565b81146105f7575f5ffd5b50565b5f81359050610608816105e4565b92915050565b5f5f604083850312156106245761062361057d565b5b5f610631858286016105c7565b9250506020610642858286016105fa565b9150509250929050565b610655816105a0565b82525050565b5f60208201905061066e5f83018461064c565b92915050565b5f602082840312156106895761068861057d565b5b5f610696848285016105c7565b91505092915050565b6106a8816105db565b82525050565b5f6020820190506106c15f83018461069f565b92915050565b5f6040820190506106da5f83018561064c565b6106e7602083018461069f565b9392505050565b5f8115159050919050565b610702816106ee565b811461070c575f5ffd5b50565b5f8151905061071d816106f9565b92915050565b5f602082840312156107385761073761057d565b5b5f6107458482850161070f565b91505092915050565b5f82825260208201905092915050565b7f5472616e73666572206661696c656400000000000000000000000000000000005f82015250565b5f610792600f8361074e565b915061079d8261075e565b602082019050919050565b5f6020820190508181035f8301526107bf81610786565b9050919050565b5f6060820190506107d95f83018661064c565b6107e6602083018561064c565b6107f3604083018461069f565b94935050505056fea264697066735822122058460b2dd873221974e14e524986aea0479ed235b9ea44cf61cb7eee9340799064736f6c634300081f00330000000000000000000000002f05b1546b2e5170db125708b228e03573ecc5e0",
        "nonce": "0x4f",
        "chainId": "0xa5bd",
        "feeToken": null,
        "calls": [],
        "keyType": null,
        "keyData": null
      },
      "additionalContracts": [],
      "isFixedGasLimit": false
    },
    {
      "hash": "0xd5409d0225a391192126a9a1066f7693571b011822f990c3d65845407170f13a",
      "transactionType": "CREATE",
      "contractName": "TTT",
      "contractAddress": "0xe85f114296f7392027ff6dc0b98927169112fe55",
      "function": null,
      "arguments": [
        "0x2f05B1546B2E5170DB125708b228E03573ecc5E0"
      ],
      "transaction": {
        "from": "0x2f05b1546b2e5170db125708b228e03573ecc5e0",
        "gas": "0x167f98",
        "value": "0x0",
        "input": "0x608060405234801561000f575f5ffd5b506040516114b53803806114b583398181016040528101906100319190610184565b6100408161004660201b60201c565b506101af565b61005461012260201b60201c565b156100cc577fffffffffffffffffffffffffffffffffffffffffffffffffffffffff7487392780541561008e57630dc149f05f526004601cfd5b8160601b60601c9150811560ff1b82178155815f7f8be0079c531659141344cd1fd0a4f28419497f9722a3daafe3b4186f6b6457e05f5fa35061011f565b8060601b60601c9050807fffffffffffffffffffffffffffffffffffffffffffffffffffffffff7487392755805f7f8be0079c531659141344cd1fd0a4f28419497f9722a3daafe3b4186f6b6457e05f5fa35b50565b5f90565b5f5ffd5b5f73ffffffffffffffffffffffffffffffffffffffff82169050919050565b5f6101538261012a565b9050919050565b61016381610149565b811461016d575f5ffd5b50565b5f8151905061017e8161015a565b92915050565b5f6020828403121561019957610198610126565b5b5f6101a684828501610170565b91505092915050565b6112f9806101bc5f395ff3fe608060405260043610610129575f3560e01c8063715018a6116100aa578063a9059cbb1161006e578063a9059cbb14610387578063d505accf146103c3578063dd62ed3e146103eb578063f04e283e14610427578063f2fde38b14610443578063fee81cf41461045f57610129565b8063715018a6146102c55780637ecebe00146102cf5780638da5cb5b1461030b57806395d89b41146103355780639dc29fac1461035f57610129565b8063313ce567116100f1578063313ce567146102035780633644e5151461022d57806340c10f191461025757806354d1f13d1461027f57806370a082311461028957610129565b806306fdde031461012d578063095ea7b31461015757806318160ddd1461019357806323b872dd146101bd57806325692962146101f9575b5f5ffd5b348015610138575f5ffd5b5061014161049b565b60405161014e9190610f42565b60405180910390f35b348015610162575f5ffd5b5061017d60048036038101906101789190610ff3565b6104d8565b60405161018a919061104b565b60405180910390f35b34801561019e575f5ffd5b506101a7610563565b6040516101b49190611073565b60405180910390f35b3480156101c8575f5ffd5b506101e360048036038101906101de919061108c565b610574565b6040516101f0919061104b565b60405180910390f35b61020161071a565b005b34801561020e575f5ffd5b5061021761076b565b60405161022491906110f7565b60405180910390f35b348015610238575f5ffd5b50610241610773565b60405161024e9190611128565b60405180910390f35b348015610262575f5ffd5b5061027d60048036038101906102789190610ff3565b6107ef565b005b610287610805565b005b348015610294575f5ffd5b506102af60048036038101906102aa9190611141565b61083e565b6040516102bc9190611073565b60405180910390f35b6102cd610857565b005b3480156102da575f5ffd5b506102f560048036038101906102f09190611141565b61086a565b6040516103029190611073565b60405180910390f35b348015610316575f5ffd5b5061031f610883565b60405161032c919061117b565b60405180910390f35b348015610340575f5ffd5b506103496108ab565b6040516103569190610f42565b60405180910390f35b34801561036a575f5ffd5b5061038560048036038101906103809190610ff3565b6108e8565b005b348015610392575f5ffd5b506103ad60048036038101906103a89190610ff3565b6108fe565b6040516103ba919061104b565b60405180910390f35b3480156103ce575f5ffd5b506103e960048036038101906103e491906111e8565b61098c565b005b3480156103f6575f5ffd5b50610411600480360381019061040c9190611285565b610b4f565b60405161041e9190611073565b60405180910390f35b610441600480360381019061043c9190611141565b610be6565b005b61045d60048036038101906104589190611141565b610c24565b005b34801561046a575f5ffd5b5061048560048036038101906104809190611141565b610c4d565b6040516104929190611073565b60405180910390f35b60606040518060400160405280601081526020017f54656d706f205465737420546f6b656e00000000000000000000000000000000815250905090565b5f6104e1610c66565b15610514578119156e22d473030f116ddee9f6b43ac78ba38460601b60601c181761051357633f68539a5f526004601cfd5b5b82602052637f5e9f20600c52335f52816034600c2055815f52602c5160601c337f8c5be1e5ebec7d5bd14f71427d1e84f3dd0314c0f7b2291e5b200ac8c7c3b92560205fa36001905092915050565b5f6805345cdf77eb68f44c54905090565b5f610580848484610c6e565b610588610c66565b15610656578360601b6e22d473030f116ddee9f6b43ac78ba333146105e15733602052637f5e9f208117600c526034600c2080548019156105de57808511156105d8576313be252b5f526004601cfd5b84810382555b50505b6387a211a28117600c526020600c208054808511156106075763f4d678b85f526004601cfd5b8481038255855f526020600c2085815401815585602052600c5160601c8460601c7fddf252ad1be2c89b69c2b068fc378daa952ba7f163c4a11628f55a4df523b3ef602080a350505050610704565b8360601b33602052637f5e9f208117600c526034600c208054801915610691578085111561068b576313be252b5f526004601cfd5b84810382555b6387a211a28317600c526020600c208054808711156106b75763f4d678b85f526004601cfd5b8681038255875f526020600c2087815401815587602052600c5160601c8660601c7fddf252ad1be2c89b69c2b068fc378daa952ba7f163c4a11628f55a4df523b3ef602080a35050505050505b61070f848484610c73565b600190509392505050565b5f610723610c78565b67ffffffffffffffff164201905063389a75e1600c52335f52806020600c2055337fdbf36a107da19e49527a7176a1babf963b4b0ff8cde35ee35d6cd8f1f9ac7e1d5f5fa250565b5f6012905090565b5f5f61077d610c82565b90505f5f1b810361079a5761079061049b565b8051906020012090505b5f6107a3610c86565b90506040517f8b73c3c69bb8fe3d512ecc4cf759cc79239f7b179b0ffacaa9a75d522b39400f815282602082015281604082015246606082015230608082015260a08120935050505090565b6107f7610caf565b6108018282610ce6565b5050565b63389a75e1600c52335f525f6020600c2055337ffa7b8eab7da67f412cc9575ed43464468f9bfbae89d1675917346ca6d8fe3c925f5fa2565b5f6387a211a2600c52815f526020600c20549050919050565b61085f610caf565b6108685f610d78565b565b5f6338377508600c52815f526020600c20549050919050565b5f7fffffffffffffffffffffffffffffffffffffffffffffffffffffffff7487392754905090565b60606040518060400160405280600381526020017f5454540000000000000000000000000000000000000000000000000000000000815250905090565b6108f0610caf565b6108fa8282610e3e565b5050565b5f61090a338484610c6e565b6387a211a2600c52335f526020600c208054808411156109315763f4d678b85f526004601cfd5b8381038255845f526020600c2084815401815584602052600c5160601c337fddf252ad1be2c89b69c2b068fc378daa952ba7f163c4a11628f55a4df523b3ef602080a3505050610982338484610c73565b6001905092915050565b610994610c66565b156109c7578419156e22d473030f116ddee9f6b43ac78ba38760601b60601c18176109c657633f68539a5f526004601cfd5b5b5f6109d0610c82565b90505f5f1b81036109ed576109e361049b565b8051906020012090505b5f6109f6610c86565b905085421115610a0d57631a15a3cc5f526004601cfd5b6040518960601b60601c99508860601b60601c985065383775081901600e52895f526020600c2080547f8b73c3c69bb8fe3d512ecc4cf759cc79239f7b179b0ffacaa9a75d522b39400f835284602084015283604084015246606084015230608084015260a08320602e527f6e71edae12b1b97f4d1f60370fef10105fa2faae0126114a169c64845d6126c983528b60208401528a60408401528960608401528060808401528860a084015260c08320604e526042602c205f528760ff16602052866040528560605260208060805f60015afa8c3d5114610af55763ddafbaef5f526004601cfd5b80820183558b637f5e9f2060a01b176040528a6034602c20558b8d7f8c5be1e5ebec7d5bd14f71427d1e84f3dd0314c0f7b2291e5b200ac8c7c3b925602060608801a3836040525f60605250505050505050505050505050565b5f610b58610c66565b15610bc8576e22d473030f116ddee9f6b43ac78ba373ffffffffffffffffffffffffffffffffffffffff168273ffffffffffffffffffffffffffffffffffffffff1603610bc7577fffffffffffffffffffffffffffffffffffffffffffffffffffffffffffffffff9050610be0565b5b81602052637f5e9f20600c52825f526034600c205490505b92915050565b610bee610caf565b63389a75e1600c52805f526020600c208054421115610c1457636f5e88185f526004601cfd5b5f815550610c2181610d78565b50565b610c2c610caf565b8060601b610c4157637448fbae5f526004601cfd5b610c4a81610d78565b50565b5f63389a75e1600c52815f526020600c20549050919050565b5f6001905090565b505050565b505050565b5f6202a300905090565b5f90565b5f7fc89efdaa54c0f20c7adf612882df0950f5a951637e0307cdcb4c672f298b8bc65f1b905090565b7fffffffffffffffffffffffffffffffffffffffffffffffffffffffff74873927543314610ce4576382b429005f526004601cfd5b565b610cf15f8383610c6e565b6805345cdf77eb68f44c5481810181811015610d145763e5cfe9575f526004601cfd5b806805345cdf77eb68f44c556387a211a2600c52835f526020600c2083815401815583602052600c5160601c5f7fddf252ad1be2c89b69c2b068fc378daa952ba7f163c4a11628f55a4df523b3ef602080a3505050610d745f8383610c73565b5050565b610d80610ece565b15610de5577fffffffffffffffffffffffffffffffffffffffffffffffffffffffff748739278160601b60601c91508181547f8be0079c531659141344cd1fd0a4f28419497f9722a3daafe3b4186f6b6457e05f5fa3811560ff1b8217815550610e3b565b7fffffffffffffffffffffffffffffffffffffffffffffffffffffffff748739278160601b60601c91508181547f8be0079c531659141344cd1fd0a4f28419497f9722a3daafe3b4186f6b6457e05f5fa3818155505b50565b610e49825f83610c6e565b6387a211a2600c52815f526020600c20805480831115610e705763f4d678b85f526004601cfd5b8281038255826805345cdf77eb68f44c54036805345cdf77eb68f44c55825f525f8460601b60601c7fddf252ad1be2c89b69c2b068fc378daa952ba7f163c4a11628f55a4df523b3ef60205fa35050610eca825f83610c73565b5050565b5f90565b5f81519050919050565b5f82825260208201905092915050565b8281835e5f83830152505050565b5f601f19601f8301169050919050565b5f610f1482610ed2565b610f1e8185610edc565b9350610f2e818560208601610eec565b610f3781610efa565b840191505092915050565b5f6020820190508181035f830152610f5a8184610f0a565b905092915050565b5f5ffd5b5f73ffffffffffffffffffffffffffffffffffffffff82169050919050565b5f610f8f82610f66565b9050919050565b610f9f81610f85565b8114610fa9575f5ffd5b50565b5f81359050610fba81610f96565b92915050565b5f819050919050565b610fd281610fc0565b8114610fdc575f5ffd5b50565b5f81359050610fed81610fc9565b92915050565b5f5f6040838503121561100957611008610f62565b5b5f61101685828601610fac565b925050602061102785828601610fdf565b9150509250929050565b5f8115159050919050565b61104581611031565b82525050565b5f60208201905061105e5f83018461103c565b92915050565b61106d81610fc0565b82525050565b5f6020820190506110865f830184611064565b92915050565b5f5f5f606084860312156110a3576110a2610f62565b5b5f6110b086828701610fac565b93505060206110c186828701610fac565b92505060406110d286828701610fdf565b9150509250925092565b5f60ff82169050919050565b6110f1816110dc565b82525050565b5f60208201905061110a5f8301846110e8565b92915050565b5f819050919050565b61112281611110565b82525050565b5f60208201905061113b5f830184611119565b92915050565b5f6020828403121561115657611155610f62565b5b5f61116384828501610fac565b91505092915050565b61117581610f85565b82525050565b5f60208201905061118e5f83018461116c565b92915050565b61119d816110dc565b81146111a7575f5ffd5b50565b5f813590506111b881611194565b92915050565b6111c781611110565b81146111d1575f5ffd5b50565b5f813590506111e2816111be565b92915050565b5f5f5f5f5f5f5f60e0888a03121561120357611202610f62565b5b5f6112108a828b01610fac565b97505060206112218a828b01610fac565b96505060406112328a828b01610fdf565b95505060606112438a828b01610fdf565b94505060806112548a828b016111aa565b93505060a06112658a828b016111d4565b92505060c06112768a828b016111d4565b91505092959891949750929550565b5f5f6040838503121561129b5761129a610f62565b5b5f6112a885828601610fac565b92505060206112b985828601610fac565b915050925092905056fea26469706673582212207df9b46fcf337e57b2d5203315d151587e169347bbc97dc3197da942a50b4b6b64736f6c634300081f00330000000000000000000000002f05b1546b2e5170db125708b228e03573ecc5e0",
        "nonce": "0x50",
        "chainId": "0xa5bd",
        "feeToken": null,
        "calls": [],
        "keyType": null,
        "keyData": null
      },
      "additionalContracts": [],
      "isFixedGasLimit": false
    },
    {
      "hash": "0xe19e5e7d0f197eeab170bc315d094c9addbfa97d4c320c42d51876c68fdb4ee6",
      "transactionType": "CALL",
      "contractName": "TTT",
      "contractAddress": "0xe85f114296f7392027ff6dc0b98927169112fe55",
      "function": "mint(address,uint256)",
      "arguments": [
        "0x2f05B1546B2E5170DB125708b228E03573ecc5E0",
        "1000000000000000000000000"
      ],
      "transaction": {
        "from": "0x2f05b1546b2e5170db125708b228e03573ecc5e0",
        "to": "0xe85f114296f7392027ff6dc0b98927169112fe55",
        "gas": "0x17d6e",
        "value": "0x0",
        "input": "0x40c10f190000000000000000000000002f05b1546b2e5170db125708b228e03573ecc5e000000000000000000000000000000000000000000000d3c21bcecceda1000000",
        "nonce": "0x51",
        "chainId": "0xa5bd",
        "feeToken": null,
        "calls": [],
        "keyType": null,
        "keyData": null
      },
      "additionalContracts": [],
      "isFixedGasLimit": false
    },
    {
      "hash": "0x02b07b76d6a018bf490fc531fa1aa7f1745985e845491b3a0efe9611733dbc32",
      "transactionType": "CALL",
      "contractName": "TTT",
      "contractAddress": "0xe85f114296f7392027ff6dc0b98927169112fe55",
      "function": "approve(address,uint256)",
      "arguments": [
        "0xf7D64FBcdF8BD4CA54645dADb9709FE3EEad4514",
        "115792089237316195423570985008687907853269984665640564039457584007913129639935"
      ],
      "transaction": {
        "from": "0x2f05b1546b2e5170db125708b228e03573ecc5e0",
        "to": "0xe85f114296f7392027ff6dc0b98927169112fe55",
        "gas": "0xfce2",
        "value": "0x0",
        "input": "0x095ea7b3000000000000000000000000f7d64fbcdf8bd4ca54645dadb9709fe3eead4514ffffffffffffffffffffffffffffffffffffffffffffffffffffffffffffffff",
        "nonce": "0x52",
        "chainId": "0xa5bd",
        "feeToken": null,
        "calls": [],
        "keyType": null,
        "keyData": null
      },
      "additionalContracts": [],
      "isFixedGasLimit": false
    },
    {
      "hash": "0xef552f560e05d0a03cfe33b316b01654e35828d02e538efc06da9bd42f7045ed",
      "transactionType": "CALL",
      "contractName": "Vault",
      "contractAddress": "0xf7d64fbcdf8bd4ca54645dadb9709fe3eead4514",
      "function": "depositTokens(address,uint256)",
      "arguments": [
        "0xe85f114296F7392027Ff6dc0b98927169112Fe55",
        "500000000000000000000000"
      ],
      "transaction": {
        "from": "0x2f05b1546b2e5170db125708b228e03573ecc5e0",
        "to": "0xf7d64fbcdf8bd4ca54645dadb9709fe3eead4514",
        "gas": "0x14694",
        "value": "0x0",
        "input": "0x66168bd7000000000000000000000000e85f114296f7392027ff6dc0b98927169112fe550000000000000000000000000000000000000000000069e10de76676d0800000",
        "nonce": "0x53",
        "chainId": "0xa5bd",
        "feeToken": null,
        "calls": [],
        "keyType": null,
        "keyData": null
      },
      "additionalContracts": [],
      "isFixedGasLimit": false
    },
    {
      "hash": "0x0c85277f356c50df63fc88c9a097e70119718ed86a2985e67ad408848c0213b5",
      "transactionType": "CALL",
      "contractName": "Vault",
      "contractAddress": "0xf7d64fbcdf8bd4ca54645dadb9709fe3eead4514",
      "function": "withdrawTokens(address,uint256)",
      "arguments": [
        "0xe85f114296F7392027Ff6dc0b98927169112Fe55",
        "500000000000000000000000"
      ],
      "transaction": {
        "from": "0x2f05b1546b2e5170db125708b228e03573ecc5e0",
        "to": "0xf7d64fbcdf8bd4ca54645dadb9709fe3eead4514",
        "gas": "0xc147",
        "value": "0x0",
        "input": "0x06b091f9000000000000000000000000e85f114296f7392027ff6dc0b98927169112fe550000000000000000000000000000000000000000000069e10de76676d0800000",
        "nonce": "0x54",
        "chainId": "0xa5bd",
        "feeToken": null,
        "calls": [],
        "keyType": null,
        "keyData": null
      },
      "additionalContracts": [],
      "isFixedGasLimit": false
    }
  ],
  "receipts": [
    {
      "type": "0x2",
      "status": "0x1",
      "cumulativeGasUsed": "0x10adc1",
      "logs": [
        {
          "address": "0xf7d64fbcdf8bd4ca54645dadb9709fe3eead4514",
          "topics": [
            "0x8be0079c531659141344cd1fd0a4f28419497f9722a3daafe3b4186f6b6457e0",
            "0x0000000000000000000000000000000000000000000000000000000000000000",
            "0x0000000000000000000000002f05b1546b2e5170db125708b228e03573ecc5e0"
          ],
          "data": "0x",
          "blockHash": "0xac2771939e6956bbb09763d8b846ff08d8efd6e8fd9e897bb638985909e0e1e0",
          "blockNumber": "0x5ba54d",
          "blockTimestamp": "0x6943ecdd",
          "transactionHash": "0xcc1450325b62da18fb9f0e703b656f4f8b9102b842d0c09298133190c9039c97",
          "transactionIndex": "0x8",
          "logIndex": "0x12",
          "removed": false
        },
        {
          "address": "0x20c0000000000000000000000000000000000001",
          "topics": [
            "0xddf252ad1be2c89b69c2b068fc378daa952ba7f163c4a11628f55a4df523b3ef",
            "0x0000000000000000000000002f05b1546b2e5170db125708b228e03573ecc5e0",
            "0x000000000000000000000000feec000000000000000000000000000000000000"
          ],
          "data": "0x00000000000000000000000000000000000000000000000000000000000014f9",
          "blockHash": "0xac2771939e6956bbb09763d8b846ff08d8efd6e8fd9e897bb638985909e0e1e0",
          "blockNumber": "0x5ba54d",
          "blockTimestamp": "0x6943ecdd",
          "transactionHash": "0xcc1450325b62da18fb9f0e703b656f4f8b9102b842d0c09298133190c9039c97",
          "transactionIndex": "0x8",
          "logIndex": "0x13",
          "removed": false
        }
      ],
      "logsBloom": "0x00000000000000000000800000000000000000000000000000800000000000000000000000000000000000000000000000000000000000000000000000000000000004000000000000000008000000000009000000000000000000000000000000000000020000000000000000000804020000000000000000000010000000400000000000000000000000000020000000000000100000000040000000000000000020000000000000000000000000000000000000000004000000000000020000000002000000000000000800000000000000000000000000000000000020000000000000000000000000000000000000000000000000000000000000000000",
      "transactionHash": "0xcc1450325b62da18fb9f0e703b656f4f8b9102b842d0c09298133190c9039c97",
      "transactionIndex": "0x8",
      "blockHash": "0xac2771939e6956bbb09763d8b846ff08d8efd6e8fd9e897bb638985909e0e1e0",
      "blockNumber": "0x5ba54d",
      "gasUsed": "0x830f4",
      "effectiveGasPrice": "0x2540e841e",
      "from": "0x2f05b1546b2e5170db125708b228e03573ecc5e0",
      "to": null,
      "contractAddress": "0xf7d64fbcdf8bd4ca54645dadb9709fe3eead4514",
      "feeToken": "0x20c0000000000000000000000000000000000001",
      "feePayer": "0x2f05b1546b2e5170db125708b228e03573ecc5e0"
    },
    {
      "type": "0x2",
      "status": "0x1",
      "cumulativeGasUsed": "0x2265dc",
      "logs": [
        {
          "address": "0xe85f114296f7392027ff6dc0b98927169112fe55",
          "topics": [
            "0x8be0079c531659141344cd1fd0a4f28419497f9722a3daafe3b4186f6b6457e0",
            "0x0000000000000000000000000000000000000000000000000000000000000000",
            "0x0000000000000000000000002f05b1546b2e5170db125708b228e03573ecc5e0"
          ],
          "data": "0x",
          "blockHash": "0xac2771939e6956bbb09763d8b846ff08d8efd6e8fd9e897bb638985909e0e1e0",
          "blockNumber": "0x5ba54d",
          "blockTimestamp": "0x6943ecdd",
          "transactionHash": "0x0c85277f356c50df63fc88c9a097e70119718ed86a2985e67ad408848c0213b5",
          "transactionIndex": "0xa",
          "logIndex": "0x16",
          "removed": false
        },
        {
          "address": "0x20c0000000000000000000000000000000000001",
          "topics": [
            "0xddf252ad1be2c89b69c2b068fc378daa952ba7f163c4a11628f55a4df523b3ef",
            "0x0000000000000000000000002f05b1546b2e5170db125708b228e03573ecc5e0",
            "0x000000000000000000000000feec000000000000000000000000000000000000"
          ],
          "data": "0x0000000000000000000000000000000000000000000000000000000000002c4f",
          "blockHash": "0xac2771939e6956bbb09763d8b846ff08d8efd6e8fd9e897bb638985909e0e1e0",
          "blockNumber": "0x5ba54d",
          "blockTimestamp": "0x6943ecdd",
          "transactionHash": "0x0c85277f356c50df63fc88c9a097e70119718ed86a2985e67ad408848c0213b5",
          "transactionIndex": "0xa",
          "logIndex": "0x17",
          "removed": false
        }
      ],
      "logsBloom": "0x00000000000000080000800000000000000000000000000000800000000000000000000000000000000000000000000000000000000000000000000000000000000004000000000000000008000000000009010000000000000000000000000000000000020000000000000000000800020000000000000000000010000000400000000000000000000000000020000000000000100000000040000000000000000020000000000000000000000100000000000000000004000000000000000000000002000000000000000000000000000000000000000000000000000020000000000000000000000000000000000000000000000000000000000000000000",
      "transactionHash": "0x0c85277f356c50df63fc88c9a097e70119718ed86a2985e67ad408848c0213b5",
      "transactionIndex": "0xa",
      "blockHash": "0xac2771939e6956bbb09763d8b846ff08d8efd6e8fd9e897bb638985909e0e1e0",
      "blockNumber": "0x5ba54d",
      "gasUsed": "0x114e75",
      "effectiveGasPrice": "0x2540e841e",
      "from": "0x2f05b1546b2e5170db125708b228e03573ecc5e0",
      "to": null,
      "contractAddress": "0xe85f114296f7392027ff6dc0b98927169112fe55",
      "feeToken": "0x20c0000000000000000000000000000000000001",
      "feePayer": "0x2f05b1546b2e5170db125708b228e03573ecc5e0"
    },
    {
      "type": "0x2",
      "status": "0x1",
      "cumulativeGasUsed": "0x237a03",
      "logs": [
        {
          "address": "0xe85f114296f7392027ff6dc0b98927169112fe55",
          "topics": [
            "0xddf252ad1be2c89b69c2b068fc378daa952ba7f163c4a11628f55a4df523b3ef",
            "0x0000000000000000000000000000000000000000000000000000000000000000",
            "0x0000000000000000000000002f05b1546b2e5170db125708b228e03573ecc5e0"
          ],
          "data": "0x00000000000000000000000000000000000000000000d3c21bcecceda1000000",
          "blockHash": "0xac2771939e6956bbb09763d8b846ff08d8efd6e8fd9e897bb638985909e0e1e0",
          "blockNumber": "0x5ba54d",
          "blockTimestamp": "0x6943ecdd",
          "transactionHash": "0xef552f560e05d0a03cfe33b316b01654e35828d02e538efc06da9bd42f7045ed",
          "transactionIndex": "0xb",
          "logIndex": "0x18",
          "removed": false
        },
        {
          "address": "0x20c0000000000000000000000000000000000001",
          "topics": [
            "0xddf252ad1be2c89b69c2b068fc378daa952ba7f163c4a11628f55a4df523b3ef",
            "0x0000000000000000000000002f05b1546b2e5170db125708b228e03573ecc5e0",
            "0x000000000000000000000000feec000000000000000000000000000000000000"
          ],
          "data": "0x00000000000000000000000000000000000000000000000000000000000002c3",
          "blockHash": "0xac2771939e6956bbb09763d8b846ff08d8efd6e8fd9e897bb638985909e0e1e0",
          "blockNumber": "0x5ba54d",
          "blockTimestamp": "0x6943ecdd",
          "transactionHash": "0xef552f560e05d0a03cfe33b316b01654e35828d02e538efc06da9bd42f7045ed",
          "transactionIndex": "0xb",
          "logIndex": "0x19",
          "removed": false
        }
      ],
      "logsBloom": "0x00000000000000080000800000000000000000000000000000000000000000000000000000000000000000000000000000000000000000000000000000000000000004000000000000000008000000000008010000000000000000000000000000000000020000000000000000000800020000000000000000000010000000000000000000000000000000000020000000000000100000000040000000000000000020000000000000000000000100000000000000000004000000000000000000000002000000000000000000000000000000000000000000000000000020000000000000000000000000000000000000000000000000000000000000000000",
      "transactionHash": "0xef552f560e05d0a03cfe33b316b01654e35828d02e538efc06da9bd42f7045ed",
      "transactionIndex": "0xb",
      "blockHash": "0xac2771939e6956bbb09763d8b846ff08d8efd6e8fd9e897bb638985909e0e1e0",
      "blockNumber": "0x5ba54d",
      "gasUsed": "0x11427",
      "effectiveGasPrice": "0x2540e841e",
      "from": "0x2f05b1546b2e5170db125708b228e03573ecc5e0",
      "to": "0xe85f114296f7392027ff6dc0b98927169112fe55",
      "contractAddress": null,
      "feeToken": "0x20c0000000000000000000000000000000000001",
      "feePayer": "0x2f05b1546b2e5170db125708b228e03573ecc5e0"
    },
    {
      "type": "0x2",
      "status": "0x1",
      "cumulativeGasUsed": "0x243119",
      "logs": [
        {
          "address": "0xe85f114296f7392027ff6dc0b98927169112fe55",
          "topics": [
            "0x8c5be1e5ebec7d5bd14f71427d1e84f3dd0314c0f7b2291e5b200ac8c7c3b925",
            "0x0000000000000000000000002f05b1546b2e5170db125708b228e03573ecc5e0",
            "0x000000000000000000000000f7d64fbcdf8bd4ca54645dadb9709fe3eead4514"
          ],
          "data": "0xffffffffffffffffffffffffffffffffffffffffffffffffffffffffffffffff",
          "blockHash": "0xac2771939e6956bbb09763d8b846ff08d8efd6e8fd9e897bb638985909e0e1e0",
          "blockNumber": "0x5ba54d",
          "blockTimestamp": "0x6943ecdd",
          "transactionHash": "0xe19e5e7d0f197eeab170bc315d094c9addbfa97d4c320c42d51876c68fdb4ee6",
          "transactionIndex": "0xc",
          "logIndex": "0x1a",
          "removed": false
        },
        {
          "address": "0x20c0000000000000000000000000000000000001",
          "topics": [
            "0xddf252ad1be2c89b69c2b068fc378daa952ba7f163c4a11628f55a4df523b3ef",
            "0x0000000000000000000000002f05b1546b2e5170db125708b228e03573ecc5e0",
            "0x000000000000000000000000feec000000000000000000000000000000000000"
          ],
          "data": "0x00000000000000000000000000000000000000000000000000000000000001d5",
          "blockHash": "0xac2771939e6956bbb09763d8b846ff08d8efd6e8fd9e897bb638985909e0e1e0",
          "blockNumber": "0x5ba54d",
          "blockTimestamp": "0x6943ecdd",
          "transactionHash": "0xe19e5e7d0f197eeab170bc315d094c9addbfa97d4c320c42d51876c68fdb4ee6",
          "transactionIndex": "0xc",
          "logIndex": "0x1b",
          "removed": false
        }
      ],
      "logsBloom": "0x00000000000000080000800000000000000000000000000000000000000000000000000000000000000000000000000000000000000000000000000000200000000004000000000000000008000000000008010000000000000000000000000000000000000000000000000000000000020000000000000000000010000000000000000000000000000000000020000000400008100000000040000000000000020020000000000000000400000100000000000000000004000000000000000000000002000000000000000000000000000000000000000000000000000000000010000000000000000000000000000000000000000000000000000000000000",
      "transactionHash": "0xe19e5e7d0f197eeab170bc315d094c9addbfa97d4c320c42d51876c68fdb4ee6",
      "transactionIndex": "0xc",
      "blockHash": "0xac2771939e6956bbb09763d8b846ff08d8efd6e8fd9e897bb638985909e0e1e0",
      "blockNumber": "0x5ba54d",
      "gasUsed": "0xb716",
      "effectiveGasPrice": "0x2540e841e",
      "from": "0x2f05b1546b2e5170db125708b228e03573ecc5e0",
      "to": "0xe85f114296f7392027ff6dc0b98927169112fe55",
      "contractAddress": null,
      "feeToken": "0x20c0000000000000000000000000000000000001",
      "feePayer": "0x2f05b1546b2e5170db125708b228e03573ecc5e0"
    },
    {
      "type": "0x2",
      "status": "0x1",
      "cumulativeGasUsed": "0x251d89",
      "logs": [
        {
          "address": "0xe85f114296f7392027ff6dc0b98927169112fe55",
          "topics": [
            "0xddf252ad1be2c89b69c2b068fc378daa952ba7f163c4a11628f55a4df523b3ef",
            "0x0000000000000000000000002f05b1546b2e5170db125708b228e03573ecc5e0",
            "0x000000000000000000000000f7d64fbcdf8bd4ca54645dadb9709fe3eead4514"
          ],
          "data": "0x0000000000000000000000000000000000000000000069e10de76676d0800000",
          "blockHash": "0xac2771939e6956bbb09763d8b846ff08d8efd6e8fd9e897bb638985909e0e1e0",
          "blockNumber": "0x5ba54d",
          "blockTimestamp": "0x6943ecdd",
          "transactionHash": "0x02b07b76d6a018bf490fc531fa1aa7f1745985e845491b3a0efe9611733dbc32",
          "transactionIndex": "0xd",
          "logIndex": "0x1c",
          "removed": false
        },
        {
          "address": "0x20c0000000000000000000000000000000000001",
          "topics": [
            "0xddf252ad1be2c89b69c2b068fc378daa952ba7f163c4a11628f55a4df523b3ef",
            "0x0000000000000000000000002f05b1546b2e5170db125708b228e03573ecc5e0",
            "0x000000000000000000000000feec000000000000000000000000000000000000"
          ],
          "data": "0x000000000000000000000000000000000000000000000000000000000000025e",
          "blockHash": "0xac2771939e6956bbb09763d8b846ff08d8efd6e8fd9e897bb638985909e0e1e0",
          "blockNumber": "0x5ba54d",
          "blockTimestamp": "0x6943ecdd",
          "transactionHash": "0x02b07b76d6a018bf490fc531fa1aa7f1745985e845491b3a0efe9611733dbc32",
          "transactionIndex": "0xd",
          "logIndex": "0x1d",
          "removed": false
        }
      ],
      "logsBloom": "0x00000000000000080000800000000000000000000000000000000000000000000000000000000000000000000000000000000000000000000000000000000000000004000000000000000008000000000008010000000000000000000000000000000000000000000000000000000000020000000000000000000010000000000000000000000000000000000020000000400008100000000040000000000000000020000000000000000400000100000000000000000004000000000000000000000002000000000000000000000000000000000000000000000000000000000000000000000000000000000000000000000000000000000000000000000000",
      "transactionHash": "0x02b07b76d6a018bf490fc531fa1aa7f1745985e845491b3a0efe9611733dbc32",
      "transactionIndex": "0xd",
      "blockHash": "0xac2771939e6956bbb09763d8b846ff08d8efd6e8fd9e897bb638985909e0e1e0",
      "blockNumber": "0x5ba54d",
      "gasUsed": "0xec70",
      "effectiveGasPrice": "0x2540e841e",
      "from": "0x2f05b1546b2e5170db125708b228e03573ecc5e0",
      "to": "0xf7d64fbcdf8bd4ca54645dadb9709fe3eead4514",
      "contractAddress": null,
      "feeToken": "0x20c0000000000000000000000000000000000001",
      "feePayer": "0x2f05b1546b2e5170db125708b228e03573ecc5e0"
    },
    {
      "type": "0x2",
      "status": "0x1",
      "cumulativeGasUsed": "0x25a978",
      "logs": [
        {
          "address": "0xe85f114296f7392027ff6dc0b98927169112fe55",
          "topics": [
            "0xddf252ad1be2c89b69c2b068fc378daa952ba7f163c4a11628f55a4df523b3ef",
            "0x000000000000000000000000f7d64fbcdf8bd4ca54645dadb9709fe3eead4514",
            "0x0000000000000000000000002f05b1546b2e5170db125708b228e03573ecc5e0"
          ],
          "data": "0x0000000000000000000000000000000000000000000069e10de76676d0800000",
          "blockHash": "0xac2771939e6956bbb09763d8b846ff08d8efd6e8fd9e897bb638985909e0e1e0",
          "blockNumber": "0x5ba54d",
          "blockTimestamp": "0x6943ecdd",
          "transactionHash": "0xd5409d0225a391192126a9a1066f7693571b011822f990c3d65845407170f13a",
          "transactionIndex": "0xe",
          "logIndex": "0x1e",
          "removed": false
        },
        {
          "address": "0x20c0000000000000000000000000000000000001",
          "topics": [
            "0xddf252ad1be2c89b69c2b068fc378daa952ba7f163c4a11628f55a4df523b3ef",
            "0x0000000000000000000000002f05b1546b2e5170db125708b228e03573ecc5e0",
            "0x000000000000000000000000feec000000000000000000000000000000000000"
          ],
          "data": "0x0000000000000000000000000000000000000000000000000000000000000167",
          "blockHash": "0xac2771939e6956bbb09763d8b846ff08d8efd6e8fd9e897bb638985909e0e1e0",
          "blockNumber": "0x5ba54d",
          "blockTimestamp": "0x6943ecdd",
          "transactionHash": "0xd5409d0225a391192126a9a1066f7693571b011822f990c3d65845407170f13a",
          "transactionIndex": "0xe",
          "logIndex": "0x1f",
          "removed": false
        }
      ],
      "logsBloom": "0x00000000000000080000800000000000000000000000000000000000000000000000000000000000000000000000000000000000000000000000000000000000000004000000000000000008000000000008010000000000000000000000000000000000000000000000000000000000020000000000000000000010000000000000000000000000000000000020000000400008100000000040000000000000000020000000000000000400000100000000000000000004000000000000000000000002000000000000000000000000000000000000000000000000000000000000000000000000000000000000000000000000000000000000000000000000",
      "transactionHash": "0xd5409d0225a391192126a9a1066f7693571b011822f990c3d65845407170f13a",
      "transactionIndex": "0xe",
      "blockHash": "0xac2771939e6956bbb09763d8b846ff08d8efd6e8fd9e897bb638985909e0e1e0",
      "blockNumber": "0x5ba54d",
      "gasUsed": "0x8bef",
      "effectiveGasPrice": "0x2540e841e",
      "from": "0x2f05b1546b2e5170db125708b228e03573ecc5e0",
      "to": "0xf7d64fbcdf8bd4ca54645dadb9709fe3eead4514",
      "contractAddress": null,
      "feeToken": "0x20c0000000000000000000000000000000000001",
      "feePayer": "0x2f05b1546b2e5170db125708b228e03573ecc5e0"
    }
  ],
  "libraries": [],
  "pending": [],
  "returns": {},
  "timestamp": 1766059231363,
  "chain": 42429,
  "commit": "ae8cc9c"
}