{
  "transactions": [
    {
      "hash": "0xc76ae020aeeb541a2b7d45ff885ce2d21bdf3dab522cf7c52a8c2283de208a32",
      "transactionType": "CALL",
      "contractName": null,
      "contractAddress": "0xadc3969da7550a3c0b01ca9097d64cf96576bd89",
      "function": "depositTokens(address,uint256)",
      "arguments": [
        "0x20C0000000000000000000000000000000000001",
        "1"
      ],
      "transaction": {
        "from": "0xe59095e33bf15e60907177eacbbc1b43f85a7154",
        "to": "0xadc3969da7550a3c0b01ca9097d64cf96576bd89",
        "value": "0x0",
        "input": "0x66168bd700000000000000000000000020c00000000000000000000000000000000000010000000000000000000000000000000000000000000000000000000000000001",
        "nonce": "0x14",
        "chainId": "0xa5bd",
        "feeToken": null,
        "calls": [],
        "keyType": null,
        "keyData": null
      },
      "additionalContracts": [],
      "isFixedGasLimit": false
    }
  ],
  "receipts": [
    {
      "type": "0x2",
      "status": "0x1",
      "cumulativeGasUsed": "0x2936d1",
      "logs": [
        {
          "address": "0x20c0000000000000000000000000000000000001",
          "topics": [
            "0xddf252ad1be2c89b69c2b068fc378daa952ba7f163c4a11628f55a4df523b3ef",
            "0x000000000000000000000000e59095e33bf15e60907177eacbbc1b43f85a7154",
            "0x000000000000000000000000adc3969da7550a3c0b01ca9097d64cf96576bd89"
          ],
          "data": "0x0000000000000000000000000000000000000000000000000000000000000001",
          "blockHash": "0xbfae6ea15200f9302706f8de5cefaece9725be245833e336d463cefd4d5b3646",
          "blockNumber": "0x5b7221",
          "blockTimestamp": "0x6943d219",
          "transactionHash": "0xc76ae020aeeb541a2b7d45ff885ce2d21bdf3dab522cf7c52a8c2283de208a32",
          "transactionIndex": "0xd",
          "logIndex": "0x20",
          "removed": false
        },
        {
          "address": "0x20c0000000000000000000000000000000000001",
          "topics": [
            "0xddf252ad1be2c89b69c2b068fc378daa952ba7f163c4a11628f55a4df523b3ef",
            "0x000000000000000000000000e59095e33bf15e60907177eacbbc1b43f85a7154",
            "0x000000000000000000000000feec000000000000000000000000000000000000"
          ],
          "data": "0x000000000000000000000000000000000000000000000000000000000000025e",
          "blockHash": "0xbfae6ea15200f9302706f8de5cefaece9725be245833e336d463cefd4d5b3646",
          "blockNumber": "0x5b7221",
          "blockTimestamp": "0x6943d219",
          "transactionHash": "0xc76ae020aeeb541a2b7d45ff885ce2d21bdf3dab522cf7c52a8c2283de208a32",
          "transactionIndex": "0xd",
          "logIndex": "0x21",
          "removed": false
        }
      ],
      "logsBloom": "0x00000000000000000000000000000000000000000000000000000000000000200000000000000000000000000000000000000000000400000000000000000000000004000100000000000008000000000008000000000000000000000000000000000000000000000000000000000000000000000000000000000010000000000000000000000000000000000020000000000000100000000040008000000000000020000000000000000000000000004000000000000000000000000000000000000012000000000000000000000000000000000000000000000000000000000000000000000000000000000000000000000000000000000000000000000000",
      "transactionHash": "0xc76ae020aeeb541a2b7d45ff885ce2d21bdf3dab522cf7c52a8c2283de208a32",
      "transactionIndex": "0xd",
      "blockHash": "0xbfae6ea15200f9302706f8de5cefaece9725be245833e336d463cefd4d5b3646",
      "blockNumber": "0x5b7221",
      "gasUsed": "0xec90",
      "effectiveGasPrice": "0x2540e841e",
      "from": "0xe59095e33bf15e60907177eacbbc1b43f85a7154",
      "to": "0xadc3969da7550a3c0b01ca9097d64cf96576bd89",
      "contractAddress": null,
      "feeToken": "0x20c0000000000000000000000000000000000001",
      "feePayer": "0xe59095e33bf15e60907177eacbbc1b43f85a7154"
    }
  ],
  "libraries": [],
  "pending": [],
  "returns": {},
  "timestamp": 1766052379568,
  "chain": 42429,
  "commit": null
}