{
  "transactions": [
    {
      "hash": "0x3e793669a115ea5005da2ed7d8842c5d428887838239dfa1db90b0fb219d52bb",
      "transactionType": "CALL",
      "contractName": null,
      "contractAddress": "0xfeec000000000000000000000000000000000000",
      "function": "setUserToken(address)",
      "arguments": [
        "0x20C0000000000000000000000000000000000001"
      ],
      "transaction": {
        "from": "0xe59095e33bf15e60907177eacbbc1b43f85a7154",
        "to": "0xfeec000000000000000000000000000000000000",
        "gas": "0x9d39",
        "value": "0x0",
        "input": "0xe789744400000000000000000000000020c0000000000000000000000000000000000001",
        "nonce": "0x5",
        "chainId": "0xa5bd",
        "feeToken": null,
        "calls": [],
        "keyType": null,
        "keyData": null
      },
      "additionalContracts": [],
      "isFixedGasLimit": false
    },
    {
      "hash": "0xa3d788975c05ab884ce163f5a47798ce41709348bd92f1c85ed9c739d4f2d315",
      "transactionType": "CALL",
      "contractName": null,
      "contractAddress": "0x20fc000000000000000000000000000000000000",
      "function": "createToken(string,string,string,address,address)",
      "arguments": [
        "testUSD",
        "tUSD",
        "USD",
        "0x20C0000000000000000000000000000000000000",
        "0xE59095E33bf15E60907177EACbbc1b43F85A7154"
      ],
      "transaction": {
        "from": "0xe59095e33bf15e60907177eacbbc1b43f85a7154",
        "to": "0x20fc000000000000000000000000000000000000",
        "gas": "0x48281",
        "value": "0x0",
        "input": "0xb395b9ac00000000000000000000000000000000000000000000000000000000000000a000000000000000000000000000000000000000000000000000000000000000e0000000000000000000000000000000000000000000000000000000000000012000000000000000000000000020c0000000000000000000000000000000000000000000000000000000000000e59095e33bf15e60907177eacbbc1b43f85a7154000000000000000000000000000000000000000000000000000000000000000774657374555344000000000000000000000000000000000000000000000000000000000000000000000000000000000000000000000000000000000000000004745553440000000000000000000000000000000000000000000000000000000000000000000000000000000000000000000000000000000000000000000000035553440000000000000000000000000000000000000000000000000000000000",
        "nonce": "0x6",
        "chainId": "0xa5bd",
        "feeToken": null,
        "calls": [],
        "keyType": null,
        "keyData": null
      },
      "additionalContracts": [],
      "isFixedGasLimit": false
    },
    {
      "hash": "0xa17ba6f04ec22a56090a06310f1436a9dcedc4e6ec0f1f043b8fb03aec20033f",
      "transactionType": "CALL",
      "contractName": null,
      "contractAddress": "0x20c000000000000000000000000000000001aa5a",
      "function": "grantRole(bytes32,address)",
      "arguments": [
        "0x114e74f6ea3bd819998f78687bfcb11b140da08e9b7d222fa9c1f1ba1f2aa122",
        "0xE59095E33bf15E60907177EACbbc1b43F85A7154"
      ],
      "transaction": {
        "from": "0xe59095e33bf15e60907177eacbbc1b43f85a7154",
        "to": "0x20c000000000000000000000000000000001aa5a",
        "gas": "0x11fe3",
        "value": "0x0",
        "input": "0x2f2ff15d114e74f6ea3bd819998f78687bfcb11b140da08e9b7d222fa9c1f1ba1f2aa122000000000000000000000000e59095e33bf15e60907177eacbbc1b43f85a7154",
        "nonce": "0x7",
        "chainId": "0xa5bd",
        "feeToken": null,
        "calls": [],
        "keyType": null,
        "keyData": null
      },
      "additionalContracts": [],
      "isFixedGasLimit": false
    },
    {
      "hash": "0xc8263560e04c512360eb57c003f4b5a67714f4b91a15885528d6d8c401aeea6e",
      "transactionType": "CALL",
      "contractName": null,
      "contractAddress": "0x20c000000000000000000000000000000001aa5a",
      "function": "mint(address,uint256)",
      "arguments": [
        "0xE59095E33bf15E60907177EACbbc1b43F85A7154",
        "1000000000000"
      ],
      "transaction": {
        "from": "0xe59095e33bf15e60907177eacbbc1b43f85a7154",
        "to": "0x20c000000000000000000000000000000001aa5a",
        "gas": "0x2470c",
        "value": "0x0",
        "input": "0x40c10f19000000000000000000000000e59095e33bf15e60907177eacbbc1b43f85a7154000000000000000000000000000000000000000000000000000000e8d4a51000",
        "nonce": "0x8",
        "chainId": "0xa5bd",
        "feeToken": null,
        "calls": [],
        "keyType": null,
        "keyData": null
      },
      "additionalContracts": [],
      "isFixedGasLimit": false
    },
    {
      "hash": "0xa00fbeb2db50811c392eca839ef877bce0284cd557731bb4c9ce6e3809e125ac",
      "transactionType": "CREATE",
      "contractName": "Mail",
      "contractAddress": "0xca0546476073e3ef007af380843019219bc42690",
      "function": null,
      "arguments": [
        "0x20C000000000000000000000000000000001aA5A"
      ],
      "transaction": {
        "from": "0xe59095e33bf15e60907177eacbbc1b43f85a7154",
        "gas": "0x9047e",
        "value": "0x0",
        "input": "0x608060405234801561000f575f5ffd5b506040516107e33803806107e3833981810160405281019061003191906100e5565b805f5f6101000a81548173ffffffffffffffffffffffffffffffffffffffff021916908373ffffffffffffffffffffffffffffffffffffffff16021790555050610110565b5f5ffd5b5f73ffffffffffffffffffffffffffffffffffffffff82169050919050565b5f6100a38261007a565b9050919050565b5f6100b482610099565b9050919050565b6100c4816100aa565b81146100ce575f5ffd5b50565b5f815190506100df816100bb565b92915050565b5f602082840312156100fa576100f9610076565b5b5f610107848285016100d1565b91505092915050565b6106c68061011d5f395ff3fe608060405234801561000f575f5ffd5b5060043610610034575f3560e01c80634f76b5ff14610038578063fc0c546a14610054575b5f5ffd5b610052600480360381019061004d9190610407565b610072565b005b61005c610185565b60405161006991906104ce565b60405180910390f35b5f5f9054906101000a900473ffffffffffffffffffffffffffffffffffffffff1673ffffffffffffffffffffffffffffffffffffffff1663929c25393385845f015185602001516040518563ffffffff1660e01b81526004016100d89493929190610514565b6020604051808303815f875af11580156100f4573d5f5f3e3d5ffd5b505050506040513d601f19601f82011682018060405250810190610118919061058c565b508273ffffffffffffffffffffffffffffffffffffffff163373ffffffffffffffffffffffffffffffffffffffff167f64d16740b35b46dccf295947317caa74afbf545a5351f8f0e968a2ffd0a46e7a8484604051610178929190610662565b60405180910390a3505050565b5f5f9054906101000a900473ffffffffffffffffffffffffffffffffffffffff1681565b5f604051905090565b5f5ffd5b5f5ffd5b5f73ffffffffffffffffffffffffffffffffffffffff82169050919050565b5f6101e3826101ba565b9050919050565b6101f3816101d9565b81146101fd575f5ffd5b50565b5f8135905061020e816101ea565b92915050565b5f5ffd5b5f5ffd5b5f601f19601f8301169050919050565b7f4e487b71000000000000000000000000000000000000000000000000000000005f52604160045260245ffd5b6102628261021c565b810181811067ffffffffffffffff821117156102815761028061022c565b5b80604052505050565b5f6102936101a9565b905061029f8282610259565b919050565b5f67ffffffffffffffff8211156102be576102bd61022c565b5b6102c78261021c565b9050602081019050919050565b828183375f83830152505050565b5f6102f46102ef846102a4565b61028a565b9050828152602081018484840111156103105761030f610218565b5b61031b8482856102d4565b509392505050565b5f82601f83011261033757610336610214565b5b81356103478482602086016102e2565b91505092915050565b5f5ffd5b5f819050919050565b61036681610354565b8114610370575f5ffd5b50565b5f813590506103818161035d565b92915050565b5f819050919050565b61039981610387565b81146103a3575f5ffd5b50565b5f813590506103b481610390565b92915050565b5f604082840312156103cf576103ce610350565b5b6103d9604061028a565b90505f6103e884828501610373565b5f8301525060206103fb848285016103a6565b60208301525092915050565b5f5f5f6080848603121561041e5761041d6101b2565b5b5f61042b86828701610200565b935050602084013567ffffffffffffffff81111561044c5761044b6101b6565b5b61045886828701610323565b9250506040610469868287016103ba565b9150509250925092565b5f819050919050565b5f61049661049161048c846101ba565b610473565b6101ba565b9050919050565b5f6104a78261047c565b9050919050565b5f6104b88261049d565b9050919050565b6104c8816104ae565b82525050565b5f6020820190506104e15f8301846104bf565b92915050565b6104f0816101d9565b82525050565b6104ff81610354565b82525050565b61050e81610387565b82525050565b5f6080820190506105275f8301876104e7565b61053460208301866104e7565b61054160408301856104f6565b61054e6060830184610505565b95945050505050565b5f8115159050919050565b61056b81610557565b8114610575575f5ffd5b50565b5f8151905061058681610562565b92915050565b5f602082840312156105a1576105a06101b2565b5b5f6105ae84828501610578565b91505092915050565b5f81519050919050565b5f82825260208201905092915050565b8281835e5f83830152505050565b5f6105e9826105b7565b6105f381856105c1565b93506106038185602086016105d1565b61060c8161021c565b840191505092915050565b61062081610354565b82525050565b61062f81610387565b82525050565b604082015f8201516106495f850182610617565b50602082015161065c6020850182610626565b50505050565b5f6060820190508181035f83015261067a81856105df565b90506106896020830184610635565b939250505056fea2646970667358221220026d2cd5351f876864cef5000500be786baa09273c71cdb0f6e42dcdcf07ea0864736f6c634300081f003300000000000000000000000020c000000000000000000000000000000001aa5a",
        "nonce": "0x9",
        "chainId": "0xa5bd",
        "feeToken": null,
        "calls": [],
        "keyType": null,
        "keyData": null
      },
      "additionalContracts": [],
      "isFixedGasLimit": false
    }
  ],
  "receipts": [
    {
      "type": "0x2",
      "status": "0x1",
      "cumulativeGasUsed": "0x4d240",
      "logs": [
        {
          "address": "0xfeec000000000000000000000000000000000000",
          "topics": [
            "0xabc7758d4ca817ce0d125eb731121a1304c36077b791253be835b95472368856",
            "0x000000000000000000000000e59095e33bf15e60907177eacbbc1b43f85a7154",
            "0x00000000000000000000000020c0000000000000000000000000000000000001"
          ],
          "data": "0x",
          "blockHash": "0x549ea85c0711cd783f6d86f4c150da5dafb1af366b6186eed00fe8255c8c76ad",
          "blockNumber": "0x5b6b51",
          "blockTimestamp": "0x6943ce89",
          "transactionHash": "0x3e793669a115ea5005da2ed7d8842c5d428887838239dfa1db90b0fb219d52bb",
          "transactionIndex": "0x7",
          "logIndex": "0xc",
          "removed": false
        },
        {
          "address": "0x20c0000000000000000000000000000000000001",
          "topics": [
            "0xddf252ad1be2c89b69c2b068fc378daa952ba7f163c4a11628f55a4df523b3ef",
            "0x000000000000000000000000e59095e33bf15e60907177eacbbc1b43f85a7154",
            "0x000000000000000000000000feec000000000000000000000000000000000000"
          ],
          "data": "0x00000000000000000000000000000000000000000000000000000000000000fb",
          "blockHash": "0x549ea85c0711cd783f6d86f4c150da5dafb1af366b6186eed00fe8255c8c76ad",
          "blockNumber": "0x5b6b51",
          "blockTimestamp": "0x6943ce89",
          "transactionHash": "0x3e793669a115ea5005da2ed7d8842c5d428887838239dfa1db90b0fb219d52bb",
          "transactionIndex": "0x7",
          "logIndex": "0xd",
          "removed": false
        }
      ],
      "logsBloom": "0x00000000000000000000000800000000000000000000000000000000000000200000000000000000000000000000000000000000000000000000000000000000000004000100000000000008000000000008000000000000000000000000000000000000000000000080000000000000000000000000000000001010000000000000000000000000000000000022000000000000100000000040000000000000000020000000000000000000000400000000000000000000000000000000000000000012000000000000000000000000000000000080000000000000000000000000000000000000000100000000000002000800000000000000000000000000",
      "transactionHash": "0x3e793669a115ea5005da2ed7d8842c5d428887838239dfa1db90b0fb219d52bb",
      "transactionIndex": "0x7",
      "blockHash": "0x549ea85c0711cd783f6d86f4c150da5dafb1af366b6186eed00fe8255c8c76ad",
      "blockNumber": "0x5b6b51",
      "gasUsed": "0x61d0",
      "effectiveGasPrice": "0x2540e841e",
      "from": "0xe59095e33bf15e60907177eacbbc1b43f85a7154",
      "to": "0xfeec000000000000000000000000000000000000",
      "contractAddress": null,
      "feeToken": "0x20c0000000000000000000000000000000000001",
      "feePayer": "0xe59095e33bf15e60907177eacbbc1b43f85a7154"
    },
    {
      "type": "0x2",
      "status": "0x1",
      "cumulativeGasUsed": "0x1bc8e8",
      "logs": [
        {
          "address": "0x20fc000000000000000000000000000000000000",
          "topics": [
            "0xaa63cb9ce3fadcd8a4edeec3460c4b3930e838803f6220fa00cb93dacdd63e01",
            "0x00000000000000000000000020c000000000000000000000000000000001aa62",
            "0x000000000000000000000000000000000000000000000000000000000001aa62"
          ],
          "data": "0x00000000000000000000000000000000000000000000000000000000000000a000000000000000000000000000000000000000000000000000000000000000e0000000000000000000000000000000000000000000000000000000000000012000000000000000000000000020c0000000000000000000000000000000000000000000000000000000000000e59095e33bf15e60907177eacbbc1b43f85a7154000000000000000000000000000000000000000000000000000000000000000774657374555344000000000000000000000000000000000000000000000000000000000000000000000000000000000000000000000000000000000000000004745553440000000000000000000000000000000000000000000000000000000000000000000000000000000000000000000000000000000000000000000000035553440000000000000000000000000000000000000000000000000000000000",
          "blockHash": "0x3f64a2ad4e1f80609654012c7d0ab52e3f7f960e8821635a526d37f15e241ac3",
          "blockNumber": "0x5b6b52",
          "blockTimestamp": "0x6943ce89",
          "transactionHash": "0xa3d788975c05ab884ce163f5a47798ce41709348bd92f1c85ed9c739d4f2d315",
          "transactionIndex": "0x1c",
          "logIndex": "0x38",
          "removed": false
        },
        {
          "address": "0x20c0000000000000000000000000000000000001",
          "topics": [
            "0xddf252ad1be2c89b69c2b068fc378daa952ba7f163c4a11628f55a4df523b3ef",
            "0x000000000000000000000000e59095e33bf15e60907177eacbbc1b43f85a7154",
            "0x000000000000000000000000feec000000000000000000000000000000000000"
          ],
          "data": "0x000000000000000000000000000000000000000000000000000000000000085c",
          "blockHash": "0x3f64a2ad4e1f80609654012c7d0ab52e3f7f960e8821635a526d37f15e241ac3",
          "blockNumber": "0x5b6b52",
          "blockTimestamp": "0x6943ce89",
          "transactionHash": "0xa3d788975c05ab884ce163f5a47798ce41709348bd92f1c85ed9c739d4f2d315",
          "transactionIndex": "0x1c",
          "logIndex": "0x39",
          "removed": false
        }
      ],
      "logsBloom": "0x00000000000000000000000000000000000000000000000000000000000000200000000040000000000000000080000000000000000000000000000000020000000004000100000000000008000000040008000000000000080000000000000000000000000000000000000000000000000000000000000000000010000000000000000000000000000000000020040000000000100000000040000000000000000020000000100000000000000000000008000000000000000000000000000040000012000000000002000000000000000000000000000000080000000000000000000000000000000000000000000000008000000000000000000000000000",
      "transactionHash": "0xa3d788975c05ab884ce163f5a47798ce41709348bd92f1c85ed9c739d4f2d315",
      "transactionIndex": "0x1c",
      "blockHash": "0x3f64a2ad4e1f80609654012c7d0ab52e3f7f960e8821635a526d37f15e241ac3",
      "blockNumber": "0x5b6b52",
      "gasUsed": "0x343d8",
      "effectiveGasPrice": "0x2540e841e",
      "from": "0xe59095e33bf15e60907177eacbbc1b43f85a7154",
      "to": "0x20fc000000000000000000000000000000000000",
      "contractAddress": null,
      "feeToken": "0x20c0000000000000000000000000000000000001",
      "feePayer": "0xe59095e33bf15e60907177eacbbc1b43f85a7154"
    },
    {
      "type": "0x2",
      "status": "0x1",
      "cumulativeGasUsed": "0x15477e",
      "logs": [
        {
          "address": "0x20c0000000000000000000000000000000000001",
          "topics": [
            "0xddf252ad1be2c89b69c2b068fc378daa952ba7f163c4a11628f55a4df523b3ef",
            "0x000000000000000000000000e59095e33bf15e60907177eacbbc1b43f85a7154",
            "0x000000000000000000000000feec000000000000000000000000000000000000"
          ],
          "data": "0x00000000000000000000000000000000000000000000000000000000000011c3",
          "blockHash": "0xa90e5b22493378b78c5e0eba3f9f98944a0158012b2ba98422edaf8b0898caa4",
          "blockNumber": "0x5b6b53",
          "blockTimestamp": "0x6943ce8a",
          "transactionHash": "0xa17ba6f04ec22a56090a06310f1436a9dcedc4e6ec0f1f043b8fb03aec20033f",
          "transactionIndex": "0xd",
          "logIndex": "0x1f",
          "removed": false
        }
      ],
      "logsBloom": "0x00000000000000000000000000000000000000000000000000000000000000200000000000000000000000000000000000000000000000000000000000000000000004000100000000000008000000000008000000000000000000000000000000000000000000000000000000000000000000000000000000000010000000000000000000000000000000000020000000000000100000000040000000000000000020000000000000000000000000000000000000000000000000000000000000000012000000000000000000000000000000000000000000000000000000000000000000000000000000000000000000000000000000000000000000000000",
      "transactionHash": "0xa17ba6f04ec22a56090a06310f1436a9dcedc4e6ec0f1f043b8fb03aec20033f",
      "transactionIndex": "0xd",
      "blockHash": "0xa90e5b22493378b78c5e0eba3f9f98944a0158012b2ba98422edaf8b0898caa4",
      "blockNumber": "0x5b6b53",
      "gasUsed": "0x6efc4",
      "effectiveGasPrice": "0x2540e841e",
      "from": "0xe59095e33bf15e60907177eacbbc1b43f85a7154",
      "to": null,
      "contractAddress": "0xca0546476073e3ef007af380843019219bc42690",
      "feeToken": "0x20c0000000000000000000000000000000000001",
      "feePayer": "0xe59095e33bf15e60907177eacbbc1b43f85a7154"
    }
  ],
  "libraries": [],
  "pending": [],
  "returns": {},
  "timestamp": 1766051468259,
  "chain": 42429,
  "commit": null
}